:020000040000FA
:100000000200A0C20075088012008B7F987E3AEF34
:100010001F70011EEF4E70F730001EE5DA20E60576
:1000200043DA4080E61508E5087D00FCE4FF120095
:1000300053E5FC70D6C20080D2E508B4FF0753DA5E
:10004000BFD20080C60508E5087D00FCE4FF120071
:100050005380B8AB07AF04EB14600C14600E24029D
:10006000700E8DFB8FFC228DE98FEA228DEB8FECD9
:1000700022E5D85440FFE5F75480FE53D8BF53F72C
:100080007F75DA03EF42D8EE42F7221200BD12006C
:10009000C41200CB1200D21200D91200AF020071BC
:1000A0001200DD787FE4F6D8FD758120020003C2DE
:1000B000DE75D908759E0175FA04D2DE227597DEC9
:1000C0007597AD2275A40175D4FF2275A51075D55D
:0E00D0000F2275E34075E20122E4F5A9222219
:00000001FF
