:020000040000FA
:0A00000002127B7597DE7597AD22A2
:10000B00021088750E9D74B1650E6008A80EE4F69B
:10001B00050E80F2750E9D2202168E74017E00A8CD
:10002B0007088005C333CE33CED8F9FFE54C5EFC11
:10003B00E54D5F4C6018E5465EFCE5475F4C600E96
:10004B00EFF4FFEEF4FEEF5247EE5246D322C322FB
:10005B0002130A1217F9C32202096DEF8DF0A4A83F
:10006B00F0CF8CF0A428CE8DF0A42EFE22BC000B7A
:10007B00BE0029EF8DF084FFADF022E4CCF875F0D3
:10008B0008EF2FFFEE33FEEC33FCEE9DEC984005B2
:10009B00FCEE9DFE0FD5F0E9E4CEFD22EDF8F5F078
:1000AB00EE8420D21CFEADF075F008EF2FFFED3380
:1000BB00FD4007985006D5F0F222C398FD0FD5F0FE
:1000CB00EA22E88FF0A4CC8BF0A42CFCE98EF0A4F0
:1000DB002CFC8AF0EDA42CFCEA8EF0A4CDA8F08BBE
:1000EB00F0A42DCC3825F0FDE98FF0A42CCD35F004
:1000FB00FCEB8EF0A4FEA9F0EB8FF0A4CFC5F02E95
:10010B00CD39FEE43CFCEAA42DCE35F0FDE43CFCFD
:10011B002275F008758200EF2FFFEE33FECD33CD45
:10012B00CC33CCC58233C5829BED9AEC99E5829892
:10013B00400CF582EE9BFEED9AFDEC99FC0FD5F091
:10014B00D6E4CEFBE4CDFAE4CCF9A88222B800C108
:10015B00B90059BA002DEC8BF084CFCECDFCE5F075
:10016B00CBF97818EF2FFFEE33FEED33FDEC33FCBC
:10017B00EB33FB10D703994004EB99FB0FD8E5E465
:10018B00F9FA227818EF2FFFEE33FEED33FDEC3347
:10019B00FCC933C910D7059BE99A4007EC9BFCE9D6
:1001AB009AF90FD8E0E4C9FAE4CCFB2275F010EF12
:1001BB002FFFEE33FEED33FDCC33CCC833C810D755
:1001CB00079BEC9AE899400AED9BFDEC9AFCE899A9
:1001DB00F80FD5F0DAE4CDFBE4CCFAE4C8F922C38E
:1001EB00E49FFFE49EFEE49DFDE49CFC22EB9FF567
:1001FB00F0EA9E42F0E99D42F0EC6480C86480987E
:10020B0045F022EB9FF5F0EA9E42F0E99D42F0E8C3
:10021B009C45F022E8600FECC313FCED13FDEE13CD
:10022B00FEEF13FFD8F122E86010ECA2E713FCED10
:10023B0013FDEE13FEEF13FFD8F022ECF0A3EDF05D
:10024B00A3EEF0A3EFF022A8828583F0D083D082B7
:10025B00120269120269120269120269E473E493D1
:10026B00A3C583C5F0C583C8C582C8F0A3C583C524
:10027B00F0C583C8C582C822A42582F582E5F03576
:10028B0083F58322D083D082F8E4937012740193A8
:10029B00700DA3A393F8740193F5828883E47374B0
:1002AB000293B5F0067403936860E9A3A3A3A3803C
:1002BB00D88A838982E473EC8EF0A4CCC5F0CCCDC4
:1002CB00F8EFA4CEC5F02DFDE43CFCE8A42EC8C588
:1002DB00F03DFDE43CFCEFA4FFE5F028FEE43DFD22
:1002EB00E43CFC22755E0190007DE0FEA3E0FFEE96
:1002FB0060030204C6EF248A601B24F6606C24FBA7
:10030B0070030203E9248560030204C690007DE4B8
:10031B00F0A37476F02004037F0022C20490003D0A
:10032B00E0F51EA3E0F51FAE1CAF1DE4FCFDC006FF
:10033B00C007AE1EAF1FAB07AA06D007D006C3EF90
:10034B009BFBEE9AFAED9400F9EC9400F890008187
:10035B00E0FEA3E0FFE41200CD900079120246E428
:10036B00F55E90007DF0A37480F0E55E70037F0175
:10037B0022900079E0F8A3E0F9A3E0FAA3E0FBC038
:10038B0000C001C002C003AE31AF32E4FCFDC006B9
:10039B00C007AE1EAF1FAB07AA06D007D006C3EF30
:1003AB009BFBEE9AFAED9400F9EC9400F890007F29
:1003BB00E0FEA3E0FFE41200CDD003D002D001D0C9
:1003CB0000EB2FFFEA3EFEE93DFDE83CFC90007997
:1003DB00120246E4F55E90007DF0A37485F0E55EB5
:1003EB0070037F0122851E1C851F1D900079E0FC88
:1003FB00A3E0FDA3E0FEA3E0FF7808120232900019
:10040B0079120246900079E0FCEC33506090007951
:10041B00E0FCA3E0FDA3E0FEA3E0FF1201EA9000E5
:10042B0079120246E4FF7E08FDFC900079E0F8A308
:10043B00E0F9A3E0FAA3E0FBD312020E4008751A11
:10044B0008751B00800A90007BE0F51AA3E0F51BF2
:10045B00C3E53E951BE53D951A5003E48054C3E577
:10046B003E951BF51BE53D951AF51A8049E4FF7E79
:10047B0008FDFC900079E0F8A3E0F9A3E0FAA3E013
:10048B00FBD312020E4008751A08751B00800A90E8
:10049B00007BE0F51AA3E0F51BE53E251BF51BE5FC
:1004AB003D351AF51AC3E51B953EE51A953D5006E9
:1004BB0074FFF51AF51BD216020317E4F55E9000D4
:1004CB007DF0A3F07F0322121D4AE4F543F542F5BC
:1004DB0041F540F530F52FF52EF52DF59D90007576
:1004EB0012025200000000759F687F01121B3775C6
:1004FB003D7F753EFFAF3EAE3D1211E9759C02E4A8
:10050B00F538C201121773A20C92AF755FC8155F55
:10051B00E55FD3940040077F03121B3780F0E4F5AF
:10052B0038F55E121773A20C92AFE55EC3940350BD
:10053B001BAF5E055EEF25E02451F582E4341DF51B
:10054B0083E493F560740193F561802DAE60AF6128
:10055B00E4FCFD900071E0F8A3E0F9A3E0FAA3E05E
:10056B00FB1200CD900075E0F8A3E0F9A3E0FAA32D
:10057B00E0FB1201588E608F61900075E0FCA3E0E8
:10058B00FDA3E0FEA3E0FF90007112024690007500
:10059B00E0F8A3E0F9A3E0FAA3E0FBE4FCFDEB2514
:1005AB0061FFEA3560FEED39FDEC38FC9000751209
:1005BB000246C3E49561FFE49560F5938F928593B2
:1005CB009585929453917F759104E4F55F539BCF7E
:1005DB00E55FC394045024E59130E70553917F0503
:1005EB005FE59B30E4EA539BEFA2AF920CC2AF8561
:1005FB00F94585FA44A20C92AF80D55391FBC3E524
:10060B0061946DE5609402400302052EE545AE440E
:10061B007806C333CE33CED8F9F5458E44E4254561
:10062B00F54574803544F544AE44AF45E4FCFDFB21
:10063B007A80F9F8D31201F8500675447F7545FF9F
:10064B0085443D85453E759FFFE4F59CE59054033D
:10065B004403F59043D5FC2253F1F0759F307F0195
:10066B00121B37539BCFE4F593F592F595F59475E3
:10067B009104F52FF530D20DE59120E76BE59B54F6
:10068B003060F5300D0BA2AF920CC2AF5391FB80D3
:10069B000FA2AF920CC2AF5391FB85952F8594306F
:1006AB00E4F595F594759104A20C92AFE59B30E4BB
:1006BB0015200708753701753802800675370475E4
:1006CB003803C2018018E59B30E513200708753706
:1006DB00047538058006753701E4F538D201539B54
:1006EB00CF300D04C20D8090E59130E703D2062286
:1006FB00C206AE2FAF307C007D021202C28F618E1C
:10070B00608D5F8C5E1218F5E47F02FEFDFCAB6121
:10071B00AA60A95FA85E1200CD8F368E358D348C02
:10072B0033A2AF920CC2AF5391FBAF94AE957C004A
:10073B007D0C1202C2A804A905AA06C3E5619FF5A8
:10074B0061E5609AF560E55F99F55FE55E98F55EAA
:10075B00E4F56DC39561F570E49560F56FC28C851A
:10076B00708A856F8CD28CC28DA20C92AF1216E45C
:10077B00756E03900045E0FFC31375F006A490005F
:10078B0056F0F53F539BCF539DCF43B802D2A943AD
:10079B00E620E4FCFDFEAB36AA35A934A8331200E3
:1007AB00CDA804A905AA06AB077F407EAE7DEB7CE6
:1007BB000212015890003DEEF0A3EFF0C208C209FF
:1007CB00E4F53CF53BF53AF539900049120252003D
:1007DB00000000C20AAF3EAE3D1211E9121C84228A
:1007EB00E4F512F513121BA9920F789DE6640A70BB
:1007FB0036FF121D0E7512008F13789D7642087608
:10080B004C087644087643087652087645087646B7
:10081B00087620750EA5AF13AE12121C29AF0E056C
:10082B000EA807760AC322789DE66452701808E674
:10083B00B4531308E6B4540E750E9DAA18A91912D9
:10084B0002BCD211C322E50BB40205E4F510C3229E
:10085B00E50BB40312751001750E9DAF0E050EA8B6
:10086B0007E4F6F50DC322789DE6643D7072F51230
:10087B00F513F55E7511A1E511C3950E5025055EB7
:10088B00A811E624D0FB7409C39B4017AE12AF131B
:10089B007C007D0A120066EF2BF513EC3EF512057A
:1008AB001180D4200F347430D3950C4015740395FC
:1008BB005E50028014AD13D20CAF0C1217B8920F0E
:1008CB0080187405C3955E5004750E9D22D20CAD35
:1008DB0013AC12AF0C12150E920F750E9DA20F22B8
:1008EB00789DE6643F704D750E9D200F39D20F74C5
:1008FB0030D3950C40157409D3950C4029AF0C12CD
:10090B001D0E7512008F13AE1280167430D3950C1A
:10091B0050147448950C400EAF0C121BEE8E128FB8
:10092B0013121C29C20F200F08AF0E050EA8077655
:10093B000AA20F22789DE664237022750E9D78A182
:10094B00E624D0F513E434FFF512200F0D451324E4
:10095B00FF920BAF0C12149B920FA20F22750E9DE0
:10096B00D322C0E0C0F0C083C082C0D075D000C01D
:10097B0000C001C002C003C004C005C006C00712FE
:10098B0018F5C3E5439530F528E542952FF527E596
:10099B0041952EF526E540952DF525E5362528FFC5
:1009AB00E5353527FEE5343526FDE5333525FC7871
:1009BB000212021FC004C005C006C007AF36AE3519
:1009CB00AD34AC33780112021FD003D002D001D06A
:1009DB0000EF2BF536EE3AF535ED39F534EC38F50D
:1009EB0033E53C2536F53CE53B3535F53BE53A350E
:1009FB0034F53AE5393533F539D53F22AF3CAE3BCB
:100A0B00AD3AAC39900049120246753C00753B007B
:100A1B00753A00753900900056E0F53FD208AF36B5
:100A2B00AE35AD34AC33780112021F8F288E278D73
:100A3B00268C25E47F697E02FDFCAB28AA27A9261C
:100A4B00A825D312020E401AE5289465F528E52750
:100A5B009402F527E5269400F526E5259400F52567
:100A6B00800C752804752700752600752500756D9B
:100A7B000085276F8528705388CF756E03C3E49567
:100A8B0028F528E49527F52785288A85278CD28C8D
:100A9B00759D00539BCF1216E453F3DF43B802D07E
:100AAB0007D006D005D004D003D002D001D000D09F
:100ABB00D0D082D083D0F0D0E032E57120E00302B9
:100ACB000BE7900083E0FEA3E0FF900071EEF0A334
:100ADB00EFF078B2E67047900039EEF0A3EFF090AC
:100AEB000039E0FEA3E0FF900030E0FCA3E0FD2F17
:100AFB00FFEC3EFEEF7802CEC313CE13D8F9FBAA60
:100B0B0006ECC313FEED132BFFEE3AFE900039F00B
:100B1B00A3EFF0900030EEF0A3EFF0020BE79000A4
:100B2B0071E0FEA3E0FF900039E0FCA3E0FDD39F52
:100B3B00EC9E4009E4900071F0A3F0800DC390008F
:100B4B0072E09DF0900071E09CF0900035E0F8A30E
:100B5B00E0F9A3E0FAA3E0FB900071E0FEA3E0FF55
:100B6B00E4FCFDEB2FFFEA3EFEED39FDEC38FC908B
:100B7B00003512024690003CE014F0705F90003597
:100B8B00E0FCA3E0FDA3E0FEA3E0FF780412021F4C
:100B9B00900071EEF0A3EFF0900071E0FEA3E0780F
:100BAB0006CEC313CE13D8F990004FF09000351238
:100BBB0002520000000090003C7410F0900071E0B5
:100BCB00FEA3E0FF7C677D201202C2781012021F89
:100BDB00EE543FFE900052EEF0A3EFF0E57130E1E2
:100BEB002B900085E0FFA3E0900071CFF0A3EFF016
:100BFB00900071E0FEA3E0FF7C307DEB1202C27827
:100C0B001012021F900046EEF0A3EFF022300610F8
:100C1B0020030DD203121CF1900042EEF0A3EFF073
:100C2B00300623121CF1900042E0FCA3E0FDC3EF61
:100C3B009DFFEE9CFED3EF9488EE94135003020DB0
:100C4B0064C203C20622E57120E003020D5A900034
:100C5B0044E0FF6023900048E0FE601C78B2E6B4ED
:100C6B00021390004FE0C39E400B0524E5249F40E8
:100C7B0007D2028003E4F52490003BE014F06003FC
:100C8B00020D5A900050E0FEA3E0FFA3E0FCA3E0AE
:100C9B00FDD39FEC9E5003020D3690003EE0953243
:100CAB0090003DE095314003020D36C3ED9FF55F9B
:100CBB00EC9EF55E90004DE0FEA3E0FF7C0C7DCC3E
:100CCB001202C2781012021F8E608F6190003EE0FC
:100CDB002532FF90003DE03531C313FEEF13256144
:100CEB00F561EE3560F560900054E0FEA3E0FFC3C4
:100CFB00E5619FF561E5609EF56090004DE0FEA318
:100D0B00E0FF7C007D201202C2A804A905AA06AB55
:100D1B0007AE5EAF5FE4FCFD1200CD781012021F30
:100D2B00C3E5619FE5609E5002D20290003B746464
:100D3B00F090003DE0FFA3E0900054CFF0A3EFF064
:100D4B00900052E0FFA3E0900050CFF0A3EFF03003
:100D5B0002071217F9D206C20222755D01900057E5
:100D6B00E0FEA3E08EF012028F0D8C00000D9601B9
:100D7B00A90E1B01E60E3A01EB0E6501F500000E04
:100D8B00909000577401F0A374A9F012163340032E
:100D9B00D38001C340037F0022E510B4010E750E12
:100DAB009DE50B640270561207EB8051E510704DF8
:100DBB001207EB4018E50B64036042AF0E050EA85B
:100DCB0007764FAF0E050EA807764B8028AF0E05A2
:100DDB000EA8077645AF0E050EA8077652AF0E0587
:100DEB000EA8077652AF0E050EA807764FAF0E056D
:100DFB000EA8077652AF0E050EA807760AE50B6410
:100E0B0002604A75119D9000577401F0A374E6F0CF
:100E1B00A2104003D38001C340037F0022D210E510
:100E2B0011650E60269000577401F0A374EBF0125D
:100E3B001CAB7401C39F50028001C340037F00228F
:100E4B00A811E6FF121A69051180D4C21030112CBB
:100E5B009000577401F0A374F5F0121CABBF100394
:100E6B00D38001C340037F0022E4F50C74FED395BD
:100E7B000C4004050C80F575EF1080FE12000E750A
:100E8B000B08020D8CE4F55D900057F0A3F07F0387
:100E9B002212199B121BCD8F5D78B2E66003020FF5
:100EAB0032E55D7003301426200621E5E85490608E
:100EBB000630EDFD75BB1FE55D6002C213121B1002
:100ECB00A205E433FDC20C7F011217B8C214121A2B
:100EDB00087F05121D0E900044EFF07F04121D0ECB
:100EEB00900048EFF07F3A121BEE90004DEEF0A30E
:100EFB00EFF07F06121D0EEF25E0FF121C707F44F2
:100F0B00121BEE90006DEEF0A3EFF07F46121BEE7E
:100F1B0090006FEEF0FCA3EFF0FD90006DE0FEA3F0
:100F2B00E0FF121CCF801378B2E6B4020DE55D70C2
:100F3B0006E532453170031217F9121CF18F5DE58E
:100F4B0064655D6037E55D30E032F56490003DE04F
:100F5B00FCA3E0FDC20C7F3012150EC20CAD3EACF3
:100F6B003D7F3612150E7F01121D0EEF24FF920BE3
:100F7B00A20BE433FDC20C7F011217B8120FA8901D
:100F8B000052E0FCA3E0FDC20C7F3212150E900064
:100F9B0046E0FCA3E0FDC20C7F3402150E121CF1DF
:100FAB00C3EF9566FFEE9565FED390008CE09F90A6
:100FBB00008BE09E4003021087121CF18E658F663A
:100FCB0020130578B2E670347F3C121BEE8E5E8FD9
:100FDB005FE532655F7004E531655E601FE55F6458
:100FEB0001455E700FD214C20CAD32AC317F3C1296
:100FFB00150E8006855E31855F32D213900087E037
:10100B00F55EA3E0F55FC374FF955FF55F743F95E5
:10101B005EF55E74FF255FF55F7401355EF55EFE70
:10102B00AF5F90004DE0FCA3E0FD1202C2780E1200
:10103B00021F900089EEF0A3EFF02568FFE5673EF5
:10104B00C313FEEF13FF900089EEF0A3EFF08E6752
:10105B00F568C3952CEE952B500A900089E52BF083
:10106B00A3E52CF0201315900089E0F531A3E0F5F2
:10107B0032C20CAD32AC317F3C12150E22C0E0C037
:10108B0083C082C0D075D000C000C006C007C28D1F
:10109B00E56E64037061E56D704E12177C43F10FC2
:1010AB00B201E537300105901D5D8003901D57930C
:1010BB00F59F756D00E570AE6F7802CEC313CE133E
:1010CB00D8F9FFC3E49FF570E49EF56F5388CF8585
:1010DB00708A856F8CD28C756E0043B80253F3DF28
:1010EB00539BCF539BCF8042156D5388CF85708A0E
:1010FB00856F8CD28C8033E56E701F539BCFF59D23
:10110B00759D10756DFF5388CFF58AF58CD28C7554
:10111B006E0153B8FD43F3208010E56EB4010B153F
:10112B006DE56DC394F05002D202D007D006D0000B
:10113B00D0D0D082D083D0E0327409D3950D403A11
:10114B00AF0D1200265030AF0D121D0E7512008F11
:10115B0013851682758300E50DF005167F69EFB5D3
:10116B001603751659E513851682758300F005165F
:10117B00EFB51603751659050D227430D3950D4036
:10118B0004750D30227448D3950D404EAF0D1218D7
:10119B00B95042AF0D121BEE8E128F13851682754E
:1011AB008300E50DF005167D69EDB516037516592F
:1011BB00E512851682758300F00516EDB5160375DD
:1011CB001659E513851682758300F005167469B5FB
:1011DB001603751659050D050D22E4F50D22AB0707
:1011EB00AA06EB7806CEC313CE13D8F9FBAA066575
:1011FB005A7003E5596A60778A598B5AD3EB9499E5
:10120B00EA9401500C301730C3EB9466EA9401401A
:10121B0027E4F9C374FF9BFB74039AFAEBAE0278D5
:10122B0002CEC313CE13D8F9FDAC06C3EB9DF56309
:10123B00EA9CF562D217801E7902EBAE027802CEE1
:10124B00C313CE13D8F92404FDE43EFCEB2DF56358
:10125B00EA3CF562C217A2AF920EC2AF8954856207
:10126B00558563568A5B8B5CA20E92AF75F7422253
:10127B00120003787FE4F6D8FD7581B20212C50225
:10128B00192DE493A3F8E493A34003F68001F2082D
:10129B00DFF48029E493A3F85407240CC8C333C4A8
:1012AB00540F4420C8834004F456800146F6DFE413
:1012BB00800B0102040810204080901C0EE47E017C
:1012CB009360BCA3FF543F30E509541FFEE493A386
:1012DB0060010ECF54C025E060A840B8E493A3FA98
:1012EB00E493A3F8E493A3C8C582C8CAC583CAF024
:1012FB00A3C8C582C8CAC583CADFE9DEE780BEC002
:10130B00E0C083C082C0D075D000C007E5F7546041
:10131B006460705375F782C2AF855496C2D8C2D938
:10132B008556FB8555FC855CE9855BEA75F70230D4
:10133B00D91785F95385FA5274202553F553E435A3
:10134B0052F5528553E98552EA30D81785F9538502
:10135B00FA5274202553F553E43552F5528553FB5D
:10136B008552FCD2AFD20A30DF18C2AFC2DF0558AC
:10137B00E55870020557D2AFFF900032E05F700264
:10138B00D204D007D0D0D082D083D0E032E510B4D5
:10139B000103121144755D01900069E0FEA3E08E1C
:1013AB00F012028F13BF000013C9022B13E7023098
:1013BB00000014139000697402F0A3742BF0E5166F
:1013CB00650F60033010037F0022D210E516650F06
:1013DB0060329000697402F0A37430F0121CAB748D
:1013EB0001C39F50028001C340037F0022850F82FF
:1013FB00758300E0FF121A69050F7469B50FCD757F
:10140B000F5980C8C21080ACE4F55D900069F0A361
:10141B00F07F03229000207401F0E4A3F0A3F0A36B
:10142B007411F0E4A3F0A37405F0A37403F0A314F8
:10143B00F0E4A3F0900000F0A3F0900002F0A3F012
:10144B00900004F0A3F0900006F0A3F0900008F0D9
:10145B00A304F090000A7415F0A37460F0E49000FC
:10146B000CF0A3F090000EF0A3F0900010F0A3741A
:10147B0080F0900012E4F0A37480F09000147432AA
:10148B00F0A374C8F09000167401F0A37490F022CE
:10149B008F5F121C5A50012274017E00A85F0880D6
:1014AB0005C333CE33CED8F9FF7430D3955F4018D4
:1014BB00EF300B07424DEE424C8046F4FFEEF4FE4C
:1014CB00EF524DEE524C80397448D3955F4032E564
:1014DB005F24D0C313F55F54F8131313541FFFE5A8
:1014EB005F5407FE7401A806088002C333D8FCFEC4
:1014FB00744E2FF8E6300B044EF68005FFEEF45FCA
:10150B00F6C3228C608D617448D39F500122EF2467
:10151B00D0C313FF25E02400F582E43400AD82F53F
:10152B00628D63EF54F8131313541FFEEF5407FF30
:10153B007401A807088002C333D8FCFF300C0AEEF5
:10154B00901D7D935F7002D322A2AF920DC2AF8527
:10155B006382856283E560F0A3E561F0A20D92AF33
:10156B0074482EF8E64FF6C322759B8F539BCF53CF
:10157B00F1F0121CF18F5EC200C20C121CF1C3EF12
:10158B00955EFE200C0EE59B30E5098F5ED20C5369
:10159B009BCF8008300C05E59B20E408EEC3940A32
:1015AB0040D98020759F21E4F55ED55EFDE59BC398
:1015BB0030E601D3920DA20D300701B34004D200E7
:1015CB008002C200759B8043F10F228F628E618D6A
:1015DB00608C5FE4F563E47B0AFAF9F8AF62AE6105
:1015EB00AD60AC5F120158EB2430FF74932563F8A8
:1015FB00A607AF62AE61AD60AC5FE47B0AFAF9F8A7
:10160B001201588F628E618D608C5FE4FFFEFDFCD2
:10161B00AB62AA61A960A85FC312020E60070563E3
:10162B00E563B40AB1AF63227F0C121A97EF7051C6
:10163B00A80EA60C749F650E702C789DE6FFB42B3C
:10164B000F08E6B42B0A08E6B42B05750B02C32270
:10165B00EF645E7019789EE6645E701208E6B45E05
:10166B000D750B03C322A80EE6B40A02C322050EA6
:10167B0074B1B50E0CAA18A9191202BC75EF108023
:10168B00FED322C0E0C0D075D000C000C007309898
:10169B0021C298C3E569956BFFEF540F6401C370CA
:1016AB0001D3400EA86BA699056B7483B56B0375BC
:1016BB006B7330991BC299C215E56A656C6011D2C8
:1016CB0015A86AE6F599056A7493B56A03756A837A
:1016DB00D007D000D0D0D0E032E538901D75939074
:1016EB00003FF0A201E433901D6375F006120283F4
:1016FB00E475F006A42583F583E5822538F582E4AD
:10170B003583F583E493900034F030010790003378
:10171B0074C7F022E538901D6F9364CF900033F0BF
:10172B0022300843C208A2AF920CC2AF900049E02E
:10173B00FCA3E0FDA3E0FEA3E0FF900071120246C4
:10174B00A20C92AF900071E0F8A3E0F9A3E0FAA32A
:10175B00E0FB7FC07E0A7DC37C0812015890003DE0
:10176B00EEF0A3EFF0D20922A2AF920CC2AF121689
:10177B00E490003FE0FFE5905403FEEF4EF0E044B1
:10178B0003F590900033E0F5D4A3E0F5D585383719
:10179B0020070D0538E538D394054010E4F53822C1
:1017AB001538E538D39405400375380522AC07741A
:1017BB0009D39C50012274017E00A804088005C344
:1017CB0033CE33CED8F9FF300C10901D7BE4935EF3
:1017DB00FA7401935F4A7002D32274202CF582E4D1
:1017EB003400F583EDF0EF4247EE4246C322C2A927
:1017FB0053E6DF78B2E664027034A2AF920CC2AF4C
:10180B00E59054034403F59043D5FCA20C92AF53DF
:10181B00917B759F30E478B2F690003DF0A3F0D247
:10182B000985443D85453EAF3EAE3D1211E9229000
:10183B00008BE4F0A37407F07F05121D0E9000449B
:10184B00EFF07F04121D0E900048EFF07F3A121B51
:10185B00EE90004DEEF0A3EFF0C213C214E4F5319D
:10186B00F532900040F0A3F0900089F0A3F0223005
:10187B00ED3B78B1E6FF25E02483F582E43400F5F7
:10188B0083E5BEF0A3E5BDF0C2ED7401A8070880A7
:10189B0002C333D8FC427178B106E6C3940340020D
:1018AB00E4F678B1E6901D8193F5BBD2EC22EF24E0
:1018BB00D0C313FF54F8131313541FFEEF5407FF39
:1018CB007401A807088002C333D8FCFF744E2EF8AE
:1018DB00E65F601474482EF8E65F600C74482EF8CF
:1018EB00E6FEEFF45EF6D322C322AF43AE42AD4128
:1018FB00AC408F308E2F8D2E8C2DC2AF85F943854A
:10190B00FA42A2DFE433F523855740855841D2AF25
:10191B00E523600DE54220E7080541E5417002052E
:10192B004022E4F5A9121B84121C98121AC07508E8
:10193B00FF75091D750A4E7517FF75180075195E31
:10194B00121B5E12196412183AD2AF12187A121ABD
:10195B003A120E9C121D4480F2121AE8121CBD1290
:10196B001CE0121D28E4F5F9F5FA121D3DD2DED26A
:10197B00CA900032740FF0C20075443F7545FFC228
:10198B0002C207C205E478B2F690003DF0A3F02244
:10199B00120C18120AC578B2E6FB701D90003C744D
:1019AB0010F090003512025200000000E490004F3E
:1019BB00F0900052F0A3F0800AEBB4020612172C41
:1019CB00121D335371FC227430D39F500B7439C3E7
:1019DB009F4005EF9430FF227461D39F500B7466C8
:1019EB00C39F4005EF24A9FF227441D39F500B7472
:1019FB0046C39F4005EF24C9FF227FFF2230120709
:101A0B0020A121C212801DA2A14003D38001C3409B
:101A1B0013201210B205A205E433FDC20C7F021293
:101A2B0017B8D2127F02121D0EEF24FF920522303F
:101A3B00910790008E7401F02290008EE0601E12D0
:101A4B001CF190008EE0B401067402F08F7222C379
:101A5B00EF9572C394084005E490008EF022AE6CB3
:101A6B00EEFDAE6AEEC39DFDED540F640170037F76
:101A7B001422A86CA607C2AC056C7493B56C0375E5
:101A8B006C83D2AC201502D2997F0022AE6BEEFD97
:101A9B00AE69EEC39DFDED540F70037F1522A8694F
:101AAB00E6A807F6C2AC05697483B569037569735B
:101ABB00D2AC7F002275D11875B39575BC2075B269
:101ACB000175B93B75DF0175E8C0C2EDE478B1F67D
:101ADB00E6901D8193F5BBD2ECE4F5712275D90923
:101AEB00E4F59E43DA0A43DB0A75F7027596024367
:101AFB00F780F5FBF5FCF5E9F5EA53F77F43E610C4
:101B0B00F557F5582278B2E6702120061EA20592F1
:101B1B00071215742000031204D212066390003BC7
:101B2B0074FFF0C203C20278B27602225391FB75A6
:101B3B0093F8759207859395859294759104EFD3DD
:101B4B009400400BE59130E7FB53917F1F80EF53DF
:101B5B0091FB22C211E4F510750B0812000E850ED5
:101B6B0011750F59850F16C210E4900057F0A3F0B2
:101B7B00900069F0A3F002141F7580FF7590FF753C
:101B8B00A0FF75F13F75F2FE43A41043A5FC75D47D
:101B9B00CE75D5FF75E10175E20243E3C022789E55
:101BAB00E6FF1219D2EFF46017EFC454F0F50C08EE
:101BBB00E6FF1219D2EFF46007EF250CF50CC322E8
:101BCB00D322121A3A90008EE0FFB4010B90008DD5
:101BDB00E07005EFF07F012290008EE090008DF019
:101BEB007F0022EF24D0C31325E02400F582E434D8
:101BFB0000F583A2AF920CC2AFE0FEA3E0FFA20CF4
:101C0B0092AF2241008E0041008D0001B200C10451
:101C1B004200300000C19202590000C11700E4FCE1
:101C2B00FD1215D6EFF4600F74932FF8E6AD0E0589
:101C3B000EA805F61F80ED2253890F438920758D61
:101C4B0096538EF4438E08858D8BC28FD28E227461
:101C5B0009D39F5006742FC39F50067448D39F50CF
:101C6B0002D322C322900045EFF0FD7C007E017F62
:101C7B00C01200788E2B8F2C2290003DE0F51CA318
:101C8B00E0F51DC216E490007DF0A3F0227598409C
:101C9B00121C43121D1BC215439810D2BCD2AC228E
:101CAB00E56A656C6009C3E56A956C540FFF227F8A
:101CBB001022538EBF538E7F5391FE5391F7E4F551
:101CCB0093F59222900081EEF0A3EFF090007FEC61
:101CDB00F0A3EDF022438E045389FB438901E4F515
:101CEB008CF58AC28C22A2AF920EC2AFAF58AE5700
:101CFB00A20E92AF22853D1A853E1B1202EFAE1A41
:101D0B00AF1B2274202FF582E43400F583E0FF2211
:101D1B00756A83756C83756973756B7322901D5728
:101D2B00E493F59F759B8022121D008E3D8F3E0222
:101D3B0011E943DA0243DB0222120D650213987597
:101D4B009602227F0022C35078B65D373230313293
:101D5B003031230313230313F77F7FDFDFF7EFEF1D
:101D6B00FBFBBFBF040102040102189084246048EE
:091D7B000074600F000006070867
:00000001FF
