:020000040000FA
:10000000020769C214753D801208CF7F987E3AEFCF
:100010001F70011EEF4E70F730141EE5DA20E60562
:1000200043DA4080E6153DE53D7D00FCE4FF120922
:1000300023E5FC70D6C21480D2E53DB4FF0753DA45
:10004000BFD21480C6053DE53D7D00FCE4FF1209EA
:100050002380B80206A4E4F5A922220207F875BBA2
:100060000775BCF953E8F843E8C2220200724398CE
:100070001022320209F1E536242AF8E60536227804
:1000800027301202782AE475F00112066E02061675
:10009000200BEB7F2ED20B8018EF540F2490D4341A
:1000A00040D4FF300F0BEF24BFB41A00500324617B
:1000B000FFE53760021537053AE53A700205393039
:1000C000120D7827E475F00112066EEF02065C024D
:1000D00008FC7403D2128003E4C212F5368B278A1F
:1000E000288929E4F537F539F53AE53760077F20A7
:1000F0001200B180F57538FFC20CC20BC20DC20EE2
:10010000C210C211C21312007FFF700D3012057FA2
:10011000001200C2AF3AAE3922B4255FC2D5C20F79
:1001200012007FFF24D0B40A00501A75F00A783705
:1001300030D50508B6FF0106C6A426F620D5047002
:1001400002D20E80D924CFB41A00EF5004C2E5D2F7
:100150000F0202C2D20C80C6D20B80C0D20D80BC6E
:10016000D2D580BAD21080B47F201200B1200D0702
:100170007401B5370040F1120076FF1200B10200A1
:10018000EAD213D2118095120076FB120076FA1291
:100190000076F94A4B700679937A037BFF200D2E87
:1001A000E537602A7E008E8275830012062F600676
:1001B0000EEE653870F0C2D5EBC0E0EAC0E0E9C0F1
:1001C000E0EE120309D0E0F9D0E0FAD0E0FB12062D
:1001D00016FF60AAEBC0E0EAC0E0E9C0E01200B19F
:1001E000D0E02401F9D0E03400FAD0E0FBE5380497
:1001F00060DCD538D980877BFF7A037905D20D8002
:100200009C791080027908C211C2138008D2D57976
:100210000A8004790AC2D5E538047002F538E4FA98
:10022000FDFEFF120076FC7B08200C13120076FD09
:100230007B10300B0A120076FE120076FF7B20EC5A
:100240003382D592D55013C3E4300B069FFFE49E52
:10025000FEE4200C039DFDE49CFCE4CBF8C20CEC16
:10026000700CCFCECDCCE824F8F870F38017C3EF34
:1002700033FFEE33FEED33FDEC33FCEB33FB994003
:1002800002FB0FD8E9EB300C05F8D0E0C448B20C03
:10029000C0E00AEC4D4E4F78207B0070C2EAB538C2
:1002A0000040BCC0E012030BD0F0D0E0200C04C42E
:1002B000C0E0C4B20CC0F012009AD0F0D5F0EB024E
:1002C00000EA12067E01875302015801584C01547E
:1002D0004202054F020D44020D49016D43021355C0
:1002E00001F74601F74501F74703B350015C2D01C3
:1002F000602E01832B016423018120039C2A011CB1
:10030000480000017B3F3F3F00790AA2D5200E1430
:10031000301009B910020404B9080104A2D5201153
:1003200002500104200D68920DB537005034C0E032
:100330007F20300E197F30A20D72117210500F12F3
:100340000362C20DC211C210C2137F30800F301081
:1003500003E9C0E01200B1301003D0E0F9D0E0B5FD
:1003600037CC3010177F30B9100C1200B17F5830E5
:100370000F077F788003B908031200B1300D057FA5
:100380002D0200B17F202013F87F2B2011F3229241
:100390000D80CF286E756C6C2900D20C120076305F
:1003A0000CF8C20C783730D50108F602011C2D502C
:1003B0004349581200762403B405004001E4900339
:1003C000AE931200A2743A1200A2D20E7537040244
:1003D0000201BC000BBE0029EF8DF084FFADF022BE
:1003E000E4CCF875F008EF2FFFEE33FEEC33FCEEB3
:1003F0009DEC984005FCEE9DFE0FD5F0E9E4CEFDA6
:1004000022EDF8F5F0EE8420D21CFEADF075F00878
:10041000EF2FFFED33FD4007985006D5F0F222C3D1
:1004200098FD0FD5F0EA22E88FF0A4CC8BF0A42C35
:10043000FCE98EF0A42CFC8AF0EDA42CFCEA8EF0F2
:10044000A4CDA8F08BF0A42DCC3825F0FDE98FF0D9
:10045000A42CCD35F0FCEB8EF0A4FEA9F0EB8FF0D0
:10046000A4CFC5F02ECD39FEE43CFCEAA42DCE3558
:10047000F0FDE43CFC2275F008758200EF2FFFEEE2
:1004800033FECD33CDCC33CCC58233C5829BED9AC0
:10049000EC99E58298400CF582EE9BFEED9AFDEC1E
:1004A00099FC0FD5F0D6E4CEFBE4CDFAE4CCF9A864
:1004B0008222B800C1B90059BA002DEC8BF084CF6C
:1004C000CECDFCE5F0CBF97818EF2FFFEE33FEED43
:1004D00033FDEC33FCEB33FB10D703994004EB996D
:1004E000FB0FD8E5E4F9FA227818EF2FFFEE33FE80
:1004F000ED33FDEC33FCC933C910D7059BE99A40B5
:1005000007EC9BFCE99AF90FD8E0E4C9FAE4CCFBCC
:100510002275F010EF2FFFEE33FEED33FDCC33CC20
:10052000C833C810D7079BEC9AE899400AED9BFDA9
:10053000EC9AFCE899F80FD5F0DAE4CDFBE4CCFABC
:10054000E4C8F922C3E49FFFE49EFEE49DFDE49C21
:10055000FC22EB9FF5F0EA9E42F0E99D42F0EC644C
:1005600080C864809845F022EB9FF5F0EA9E42F047
:10057000E99D42F0E89C45F022E8600FECC313FCD3
:10058000ED13FDEE13FEEF13FFD8F122E86010EC3F
:10059000A2E713FCED13FDEE13FEEF13FFD8F022DC
:1005A000ECF0A3EDF0A3EEF0A3EFF022A882858398
:1005B000F0D083D0821205C31205C31205C3120501
:1005C000C3E473E493A3C583C5F0C583C8C582C8DB
:1005D000F0A3C583C5F0C583C8C582C822A42582FF
:1005E000F582E5F03583F58322EC8EF0A4CCC5F0DE
:1005F000CCCDF8EFA4CEC5F02DFDE43CFCE8A42E54
:10060000C8C5F03DFDE43CFCEFA4FFE5F028FEE4A6
:100610003DFDE43CFC22BB010689828A83E0225036
:1006200002E722BBFE02E32289828A83E49322BB93
:10063000010CE58229F582E5833AF583E022500634
:10064000E92582F8E622BBFE06E92582F8E222E5EA
:100650008229F582E5833AF583E49322BB0106897A
:10066000828A83F0225002F722BBFE01F322FAE6CF
:10067000FB0808E6F925F0F618E6CA3AF622D08318
:10068000D082F8E4937012740193700DA3A393F8D1
:10069000740193F5828883E4737402936860EFA316
:1006A000A3A380DFC0E0C0F0C083C082C0D075D0FB
:1006B00000C000C001C002C003C004C005C006C025
:1006C00007752600752500752400752300C2EDAF5F
:1006D000BDAEBEE4FCFDE50B2FF50BE50A3EF50AC9
:1006E000ED3509F509EC3508F508E50D150D700235
:1006F000150CE50D450C7056750C08F50DFB7A08C8
:10070000F9F8AF0BAE0AAD09AC081204B28F268E11
:10071000258D248C23750B00750A0075090075085A
:1007200000E47FE47E0CFDFCAB26AA25A924A823C7
:10073000120427E47BFF7A03F9F81204B27BFF7AF4
:1007400009795C8F2D8E2C8D2B8C2A1200D8D00726
:10075000D006D005D004D003D002D001D000D0D034
:10076000D082D083D0F0D0E03212005A787FE4F605
:10077000D8FD7581690207B3020003E493A3F8E48E
:1007800093A34003F68001F208DFF48029E493A3E9
:10079000F85407240CC8C333C4540F4420C8834002
:1007A00004F456800146F6DFE4800B0102040810D1
:1007B000204080900941E47E019360BCA3FF543F38
:1007C00030E509541FFEE493A360010ECF54C02509
:1007D000E060A840B8E493A3FAE493A3F8E493A3F9
:1007E000C8C582C8CAC583CAF0A3C8C582C8CAC55D
:1007F00083CADFE9DEE780BEC0E0C083C082C0D02C
:1008000075D000C007E5F754606460705375F782D7
:10081000C2AF851496C2D8C2D98513FB8512FC8558
:1008200011E98510EA75F70230D91785F90F85FAB5
:100830000E7420250FF50FE4350EF50E850FE985B2
:100840000EEA30D81785F90F85FA0E7420250FF5BA
:100850000FE4350EF50E850FFB850EFCD2AFD20AE4
:1008600030DF18C2AFC2DF053CE53C7002053BD269
:10087000AFFF900002E05F7002D204D007D0D0D06A
:1008800082D083D0E0327597A5E4F541F540F53F7D
:10089000F53EE47FCCFEFDFCAB41AA40A93FA83E5B
:1008A000C3120568501800E5412401F541E43540C4
:1008B000F540E4353FF53FE4353EF53E80D4A2AF48
:1008C0009215C2AF7597DE7597ADA21592AF221241
:1008D00008861209B41209DC1209E312005E12093B
:1008E000C81200561209731209861209A71209D2FA
:1008F0001209991209BE12006E0209EAEFB40A0742
:10090000740D120907740A309811A899B8130CC213
:10091000983098FDA899C298B811F63099FDC299FF
:10092000F59922AB07AF04EB14600C14600E24029F
:10093000700E8DFB8FFC228DE98FEA228DEB8FEC00
:1009400022040800000000020C0800016900C10434
:10095000420000000002150000C117000A50302EAE
:100960003720766F6C746167653A20256C64206D62
:10097000560A00AF885388AF758D96EF5440FEEF4E
:1009800054104E428822E5C8540453C8FB75CBFF6F
:1009900075CA3443C80442C822C2DE75D908759EA0
:1009A0000175FA04D2DE22E59154045391FB439180
:1009B0000442912275A41175F17F75D4CF2253F7AB
:1009C0007F75DA03E4F5FC2253ABFC43AB3043BF45
:1009D0008022758E087589204388402275A5107580
:1009E000D5FF2275E34075E1012275E6D875A88030
:0209F0002232B1
:00000001FF
