:020000040000FA
:1000000002127B7597DE7597AD2222021088750E5D
:100010009D74B1650E6008A80EE4F6050E80F275B9
:100020000E9D2202168F121A85121BFF121D391205
:100030001B3B7508FF75091E750A657517FF751856
:100040000075195E121BD91219771218841218C480
:10005000121AB5120E9C121E5380F202130A1218C5
:1000600043C32202096DEF8DF0A4A8F0CF8CF0A459
:1000700028CE8DF0A42EFE22BC000BBE0029EF8DF1
:10008000F084FFADF022E4CCF875F008EF2FFFEE1E
:1000900033FEEC33FCEE9DEC984005FCEE9DFE0F2C
:1000A000D5F0E9E4CEFD22EDF8F5F0EE8420D21C87
:1000B000FEADF075F008EF2FFFED33FD40079850CF
:1000C00006D5F0F222C398FD0FD5F0EA22E88FF0B2
:1000D000A4CC8BF0A42CFCE98EF0A42CFC8AF0EDCF
:1000E000A42CFCEA8EF0A4CDA8F08BF0A42DCC3883
:1000F00025F0FDE98FF0A42CCD35F0FCEB8EF0A4BB
:10010000FEA9F0EB8FF0A4CFC5F02ECD39FEE43C74
:10011000FCEAA42DCE35F0FDE43CFC2275F0087518
:100120008200EF2FFFEE33FECD33CDCC33CCC58232
:1001300033C5829BED9AEC99E58298400CF582EEEE
:100140009BFEED9AFDEC99FC0FD5F0D6E4CEFBE4D6
:10015000CDFAE4CCF9A88222B800C1B90059BA009E
:100160002DEC8BF084CFCECDFCE5F0CBF97818EFF9
:100170002FFFEE33FEED33FDEC33FCEB33FB10D7FA
:1001800003994004EB99FB0FD8E5E4F9FA227818BB
:10019000EF2FFFEE33FEED33FDEC33FCC933C91016
:1001A000D7059BE99A4007EC9BFCE99AF90FD8E048
:1001B000E4C9FAE4CCFB2275F010EF2FFFEE33FE1A
:1001C000ED33FDCC33CCC833C810D7079BEC9AE88D
:1001D00099400AED9BFDEC9AFCE899F80FD5F0DA0E
:1001E000E4CDFBE4CCFAE4C8F922C3E49FFFE49E2B
:1001F000FEE49DFDE49CFC22EB9FF5F0EA9E42F0BC
:10020000E99D42F0EC6480C864809845F022EB9F41
:10021000F5F0EA9E42F0E99D42F0E89C45F022E8C4
:10022000600FECC313FCED13FDEE13FEEF13FFD8CC
:10023000F122E86010ECA2E713FCED13FDEE13FED3
:10024000EF13FFD8F022ECF0A3EDF0A3EEF0A3EF54
:10025000F022A8828583F0D083D082120269120234
:1002600069120269120269E473E493A3C583C5F0BD
:10027000C583C8C582C8F0A3C583C5F0C583C8C5FA
:1002800082C822A42582F582E5F03583F58322D049
:1002900083D082F8E4937012740193700DA3A3933A
:1002A000F8740193F5828883E473740293B5F006C1
:1002B0007403936860E9A3A3A3A380D88A83898287
:1002C000E473EC8EF0A4CCC5F0CCCDF8EFA4CEC591
:1002D000F02DFDE43CFCE8A42EC8C5F03DFDE43C57
:1002E000FCEFA4FFE5F028FEE43DFDE43CFC2275B4
:1002F0005E0190007DE0FEA3E0FFEE60030204C615
:10030000EF248A601B24F6606C24FB70030203E96F
:10031000248560030204C690007DE4F0A37476F0A7
:100320002004037F0022C20490003DE0F51EA3E0FC
:10033000F51FAE1CAF1DE4FCFDC006C007AE1EAF2E
:100340001FAB07AA06D007D006C3EF9BFBEE9AFAB5
:10035000ED9400F9EC9400F8900081E0FEA3E0FF3A
:10036000E41200CD900079120246E4F55E90007D23
:10037000F0A37480F0E55E70037F0122900079E0C5
:10038000F8A3E0F9A3E0FAA3E0FBC000C001C002BB
:10039000C003AE31AF32E4FCFDC006C007AE1EAFF5
:1003A0001FAB07AA06D007D006C3EF9BFBEE9AFA55
:1003B000ED9400F9EC9400F890007FE0FEA3E0FFDC
:1003C000E41200CDD003D002D001D000EB2FFFEA21
:1003D0003EFEE93DFDE83CFC900079120246E4F562
:1003E0005E90007DF0A37485F0E55E70037F0122CE
:1003F000851E1C851F1D900079E0FCA3E0FDA3E095
:10040000FEA3E0FF780812023290007912024690B3
:100410000079E0FCEC335060900079E0FCA3E0FD53
:10042000A3E0FEA3E0FF1201EA900079120246E485
:10043000FF7E08FDFC900079E0F8A3E0F9A3E0FA64
:10044000A3E0FBD312020E4008751A08751B00804A
:100450000A90007BE0F51AA3E0F51BC3E53E951B6F
:10046000E53D951A5003E48054C3E53E951BF51B0A
:10047000E53D951AF51A8049E4FF7E08FDFC9000E1
:1004800079E0F8A3E0F9A3E0FAA3E0FBD312020EAF
:100490004008751A08751B00800A90007BE0F51A69
:1004A000A3E0F51BE53E251BF51BE53D351AF51AC6
:1004B000C3E51B953EE51A953D500674FFF51AF508
:1004C0001BD216020317E4F55E90007DF0A3F07FC7
:1004D0000322121E61E4F543F542F541F540F53083
:1004E000F52FF52EF52DF59D9000751202520000A6
:1004F0000000759F687F01121BB2753D7F753EFF3E
:10050000AF3EAE3D1211E9759C02E4F538C201120E
:1005100017BDA20C92AF755FC8155FE55FD394005D
:1005200040077F03121BB280F0E4F538F55E121726
:10053000BDA20C92AFE55EC39403501BAF5E055E97
:10054000EF25E02468F582E4341EF583E493F5603A
:10055000740193F561802DAE60AF61E4FCFD900005
:1005600071E0F8A3E0F9A3E0FAA3E0FB1200CD905C
:100570000075E0F8A3E0F9A3E0FAA3E0FB1201584C
:100580008E608F61900075E0FCA3E0FDA3E0FEA308
:10059000E0FF900071120246900075E0F8A3E0F9C8
:1005A000A3E0FAA3E0FBE4FCFDEB2561FFEA356084
:1005B000FEED39FDEC38FC900075120246C3E4955F
:1005C00061FFE49560F5938F92859395859294539E
:1005D000917F759104E4F55F539BCFE55FC394046D
:1005E0005024E59130E70553917F055FE59B30E4AA
:1005F000EA539BEFA2AF920CC2AF85F94585FA444E
:10060000A20C92AF80D55391FBC3E561946DE56078
:100610009402400302052EE545AE447806C333CE6E
:1006200033CED8F9F5458E44E42545F5457480353B
:1006300044F544AE44AF45E4FCFDFB7A80F9F8D3C1
:100640001201F8500675447F7545FF85443D854588
:100650003E759FFFE4F59CE59054034403F59043F9
:10066000D5FC2253F1F0759F307F01121BB2539BD2
:10067000CFE4F593F592F595F594759104F52FF582
:1006800030D20DE59120E76BE59B543060F5300DDD
:100690000BA2AF920CC2AF5391FB800FA2AF920C92
:1006A000C2AF5391FB85952F859430E4F595F59471
:1006B000759104A20C92AFE59B30E41520070875F4
:1006C00037017538028006753704753803C201801A
:1006D00018E59B30E5132007087537047538058049
:1006E00006753701E4F538D201539BCF300D04C2B3
:1006F0000D8090E59130E703D20622C206AE2FAFFF
:10070000307C007D021202C28F618E608D5F8C5E34
:1007100012193FE47F02FEFDFCAB61AA60A95FA84D
:100720005E1200CD8F368E358D348C33A2AF920C95
:10073000C2AF5391FBAF94AE957C007D0C1202C208
:10074000A804A905AA06C3E5619FF561E5609AF5CD
:1007500060E55F99F55FE55E98F55EE4F56DC3953C
:1007600061F570E49560F56FC28C85708A856F8C39
:10077000D28CC28DA20C92AF12172E756E03900010
:1007800045E0FFC31375F006A4900056F0F53F5303
:100790009BCF539DCF43B802D2A943E620E4FCFD92
:1007A000FEAB36AA35A934A8331200CDA804A9059A
:1007B000AA06AB077F407EAE7DEB7C02120158900B
:1007C000003DEEF0A3EFF0C208C209E4F53CF53BB2
:1007D000F53AF53990004912025200000000C20AB1
:1007E000AF3EAE3D1211E9121CFF22E4F512F513E3
:1007F000121C24920F789DE6640A7036FF121DDAEF
:100800007512008F13789D764208764C087644085E
:100810007643087652087645087646087620750EA7
:10082000A5AF13AE12121CA4AF0E050EA807760AD0
:10083000C322789DE66452701808E6B4531308E6A4
:10084000B4540E750E9DAA18A9191202BCD211C378
:1008500022E50BB40205E4F510C322E50BB4031244
:10086000751001750E9DAF0E050EA807E4F6F50D87
:10087000C322789DE6643D7072F512F513F55E753E
:1008800011A1E511C3950E5025055EA811E624D0EF
:10089000FB7409C39B4017AE12AF137C007D0A1294
:1008A0000066EF2BF513EC3EF512051180D4200FF6
:1008B000347430D3950C40157403955E5002801447
:1008C000AD13D20CAF0C121802920F80187405C32E
:1008D000955E5004750E9D22D20CAD13AC12AF0C78
:1008E00012150F920F750E9DA20F22789DE6643FA0
:1008F000704D750E9D200F39D20F7430D3950C407A
:10090000157409D3950C4029AF0C121DDA7512002D
:100910008F13AE1280167430D3950C501474489512
:100920000C400EAF0C121C698E128F13121CA4C245
:100930000F200F08AF0E050EA807760AA20F227827
:100940009DE664237022750E9D78A1E624D0F513F0
:10095000E434FFF512200F0D451324FF920BAF0C6A
:1009600012149C920FA20F22750E9DD322C0E0C0DC
:10097000F0C083C082C0D075D000C000C001C002EA
:10098000C003C004C005C006C00712193FC3E54339
:100990009530F528E542952FF527E541952EF5266A
:1009A000E540952DF525E5362528FFE5353527FE6B
:1009B000E5343526FDE5333525FC780212021FC0EB
:1009C00004C005C006C007AF36AE35AD34AC3378D1
:1009D0000112021FD003D002D001D000EF2BF53658
:1009E000EE3AF535ED39F534EC38F533E53C25369E
:1009F000F53CE53B3535F53BE53A3534F53AE53937
:100A00003533F539D53F22AF3CAE3BAD3AAC3990EA
:100A10000049120246753C00753B00753A00753975
:100A200000900056E0F53FD208AF36AE35AD34AC9D
:100A300033780112021F8F288E278D268C25E47FA4
:100A4000697E02FDFCAB28AA27A926A825D312029D
:100A50000E401AE5289465F528E5279402F527E568
:100A6000269400F526E5259400F525800C752804CC
:100A7000752700752600752500756D0085276F8523
:100A800028705388CF756E03C3E49528F528E49544
:100A900027F52785288A85278CD28C759D00539B46
:100AA000CF12172E53F3DF43B802D007D006D0057C
:100AB000D004D003D002D001D000D0D0D082D083D7
:100AC000D0F0D0E032E57120E003020BE790008324
:100AD000E0FEA3E0FF900071EEF0A3EFF078B2E645
:100AE0007047900039EEF0A3EFF0900039E0FEA3DC
:100AF000E0FF900030E0FCA3E0FD2FFFEC3EFEEFB6
:100B00007802CEC313CE13D8F9FBAA06ECC313FEAA
:100B1000ED132BFFEE3AFE900039F0A3EFF09000BA
:100B200030EEF0A3EFF0020BE7900071E0FEA3E0DF
:100B3000FF900039E0FCA3E0FDD39FEC9E4009E468
:100B4000900071F0A3F0800DC3900072E09DF090D2
:100B50000071E09CF0900035E0F8A3E0F9A3E0FA22
:100B6000A3E0FB900071E0FEA3E0FFE4FCFDEB2FAF
:100B7000FFEA3EFEED39FDEC38FC900035120246EE
:100B800090003CE014F0705F900035E0FCA3E0FDC5
:100B9000A3E0FEA3E0FF780412021F900071EEF0C4
:100BA000A3EFF0900071E0FEA3E07806CEC313CE71
:100BB00013D8F990004FF090003512025200000057
:100BC0000090003C7410F0900071E0FEA3E0FF7C08
:100BD000427DF71202C2781012021FEE543FFE90BF
:100BE0000052EEF0A3EFF0E57130E12B900085E0CC
:100BF000FFA3E0900071CFF0A3EFF0900071E0FE52
:100C0000A3E0FF7C307DEB1202C2781012021F902D
:100C10000046EEF0A3EFF02230061020030DD203C1
:100C2000121DA3900042EEF0A3EFF0300623121D38
:100C3000A3900042E0FCA3E0FDC3EF9DFFEE9CFE0D
:100C4000D3EF9488EE94135003020D64C203C206DE
:100C500022E57120E003020D5A900044E0FF60237A
:100C6000900048E0FE601C78B2E6B4021390004F9A
:100C7000E0C39E400B0524E5249F4007D202800379
:100C8000E4F52490003BE014F06003020D5A90005C
:100C900050E0FEA3E0FFA3E0FCA3E0FDD39FEC9EA9
:100CA0005003020D3690003EE0953290003DE095F5
:100CB000314003020D36C3ED9FF55FEC9EF55E906B
:100CC000004DE0FEA3E0FF7C0C7DCC1202C2781048
:100CD00012021F8E608F6190003EE02532FF90006F
:100CE0003DE03531C313FEEF132561F561EE35604C
:100CF000F560900054E0FEA3E0FFC3E5619FF5615D
:100D0000E5609EF56090004DE0FEA3E0FF7C007D75
:100D1000201202C2A804A905AA06AB07AE5EAF5F07
:100D2000E4FCFD1200CD781012021FC3E5619FE5BF
:100D3000609E5002D20290003B7464F090003DE04F
:100D4000FFA3E0900054CFF0A3EFF0900052E0FF3B
:100D5000A3E0900050CFF0A3EFF030020712184349
:100D6000D206C20222755D01900057E0FEA3E08E1C
:100D7000F012028F0D8C00000D9601A90E1B01E6EA
:100D80000E3A01EB0E6501F500000E9090005774CD
:100D900001F0A374A9F01216344003D38001C340BC
:100DA000037F0022E510B4010E750E9DE50B640271
:100DB00070561207EB8051E510704D1207EB40188A
:100DC000E50B64036042AF0E050EA807764FAF0E29
:100DD000050EA807764B8028AF0E050EA8077645AE
:100DE000AF0E050EA8077652AF0E050EA807765275
:100DF000AF0E050EA807764FAF0E050EA807765268
:100E0000AF0E050EA807760AE50B6402604A75115D
:100E10009D9000577401F0A374E6F0A2104003D334
:100E20008001C340037F0022D210E511650E6026C9
:100E30009000577401F0A374EBF0121D4C7401C3C1
:100E40009F50028001C340037F0022A811E6FF12D9
:100E50001AE4051180D4C21030112C90005774018F
:100E6000F0A374F5F0121D4CBF1003D38001C340F2
:100E7000037F0022E4F50C74FED3950C4004050CAE
:100E800080F575EF1080FE12000E750B08020D8CB8
:100E9000E4F55D900057F0A3F07F03221219AE1223
:100EA0001C488F5D78B2E66003020F32E55D700387
:100EB000301426200621E5E85490600630EDFD75DB
:100EC000BB1FE55D6002C213121B8BA205E433FD5C
:100ED000C20C7F01121802C214121A507F05121D93
:100EE000DA900044EFF07F04121DDA900048EFF032
:100EF0007F3A121C6990004DEEF0A3EFF07F0612CE
:100F00001DDAEF25E0FF121CEB7F44121C699000F4
:100F10006DEEF0A3EFF07F46121C6990006FEEF0CB
:100F2000FCA3EFF0FD90006DE0FEA3E0FF121D8139
:100F3000801378B2E6B4020DE55D7006E532453106
:100F40007003121843121DA38F5DE564655D603761
:100F5000E55D30E032F56490003DE0FCA3E0FDC2C9
:100F60000C7F3012150FC20CAD3EAC3D7F36121512
:100F70000F7F01121DDAEF24FF920BA20BE433FD69
:100F8000C20C7F01121802120FA8900052E0FCA3BD
:100F9000E0FDC20C7F3212150F900046E0FCA3E08A
:100FA000FDC20C7F3402150F121DA3C3EF9566FF1F
:100FB000EE9565FED390008CE09F90008BE09E4004
:100FC00003021087121DA38E658F6620130578B269
:100FD000E670347F3C121C698E5E8F5FE532655F80
:100FE0007004E531655E601FE55F6401455E700F6A
:100FF000D214C20CAD32AC317F3C12150F80068585
:101000005E31855F32D213900087E0F55EA3E0F594
:101010005FC374FF955FF55F743F955EF55E74FF87
:10102000255FF55F7401355EF55EFEAF5F90004DA4
:10103000E0FCA3E0FD1202C2780E12021F900089AC
:10104000EEF0A3EFF02568FFE5673EC313FEEF1354
:10105000FF900089EEF0A3EFF08E67F568C3952C42
:10106000EE952B500A900089E52BF0A3E52CF0209B
:101070001315900089E0F531A3E0F532C20CAD32D2
:10108000AC317F3C12150F22C0E0C083C082C0D0BB
:1010900075D000C000C006C007C28DE56E64037045
:1010A00061E56D704E1217C643F10FB201E537309E
:1010B0000105901E748003901E6E93F59F756D0060
:1010C000E570AE6F7802CEC313CE13D8F9FFC3E438
:1010D0009FF570E49EF56F5388CF85708A856F8C7D
:1010E000D28C756E0043B80253F3DF539BCF539BF2
:1010F000CF8042156D5388CF85708A856F8CD28CD6
:101100008033E56E701F539BCFF59D759D10756DF7
:10111000FF5388CFF58AF58CD28C756E0153B8FDDC
:1011200043F3208010E56EB4010B156DE56DC3949B
:10113000F05002D202D007D006D000D0D0D082D05A
:1011400083D0E0327409D3950D403AAF0D121A1BCB
:101150005030AF0D121DDA7512008F13851682758F
:101160008300E50DF005167F69EFB5160375165976
:10117000E513851682758300F00516EFB516037525
:101180001659050D227430D3950D4004750D30228B
:101190007448D3950D404EAF0D1219035042AF0D58
:1011A000121C698E128F13851682758300E50DF06F
:1011B00005167D69EDB51603751659E5128516827B
:1011C000758300F00516EDB51603751659E5138500
:1011D0001682758300F005167469B51603751659E5
:1011E000050D050D22E4F50D22AB07AA06EB7806E6
:1011F000CEC313CE13D8F9FBAA06655A7003E5597E
:101200006A60778A598B5AD3EB9499EA9401500C0F
:10121000301730C3EB9466EA94014027E4F9C374B5
:10122000FF9BFB74039AFAEBAE027802CEC313CE97
:1012300013D8F9FDAC06C3EB9DF563EA9CF562D2C9
:1012400017801E7902EBAE027802CEC313CE13D8FC
:10125000F92404FDE43EFCEB2DF563EA3CF562C2A3
:1012600017A2AF920EC2AF89548562558563568A24
:101270005B8B5CA20E92AF75F74222120003787F5F
:10128000E4F6D8FD7581B20212C5020026E493A3EC
:10129000F8E493A34003F68001F208DFF48029E428
:1012A00093A3F85407240CC8C333C4540F4420C874
:1012B000834004F456800146F6DFE4800B0102040B
:1012C0000810204080901C89E47E019360BCA3FF3D
:1012D000543F30E509541FFEE493A360010ECF5440
:1012E000C025E060A840B8E493A3FAE493A3F8E42F
:1012F00093A3C8C582C8CAC583CAF0A3C8C582C89B
:10130000CAC583CADFE9DEE780BEC0E0C083C08211
:10131000C0D075D000C007E5F754606460705375A5
:10132000F782C2AF855496C2D8C2D98556FB85557F
:10133000FC855CE9855BEA75F70230D91785F953BE
:1013400085FA5274202553F553E43552F5528553EE
:10135000E98552EA30D81785F95385FA5274202569
:1013600053F553E43552F5528553FB8552FCD2AF09
:10137000D20A30DF18C2AFC2DF0558E55870020547
:1013800057D2AFFF900032E05F7002D204D007D096
:10139000D0D082D083D0E032E510B40103121144E2
:1013A000755D01900069E0FEA3E08EF012028F13DC
:1013B000BF000013C9022B13E70230000014139082
:1013C00000697402F0A3742BF0E516650F6003301A
:1013D00010037F0022D210E516650F60329000697D
:1013E0007402F0A37430F0121D4C7401C39F5002BC
:1013F0008001C340037F0022850F82758300E0FFD8
:10140000121AE4050F7469B50FCD750F5980C8C263
:101410001080ACE4F55D900069F0A3F07F032290AA
:1014200000207401F0E4A3F0A3F0A37411F0A374FE
:101430003CF0A37405F0A37403F0A314F0E4A3F04C
:10144000900000F0A3F0900002F0A3F0900004F0F0
:10145000A3F0900006F0A3F0900008F0A304F09031
:10146000000A7415F0A37460F0E490000CF0A3F08F
:1014700090000EF0A3F0900010F0A37480F09000A4
:1014800012E4F0A37480F09000147432F0A374C8D6
:10149000F09000167401F0A37490F0228F5F121C7C
:1014A000D550012274017E00A85F088005C333CEA9
:1014B00033CED8F9FF7430D3955F4018EF300B0767
:1014C000424DEE424C8046F4FFEEF4FEEF524DEEFC
:1014D000524C80397448D3955F4032E55F24D0C3C5
:1014E00013F55F54F8131313541FFFE55F5407FE01
:1014F0007401A806088002C333D8FCFE744E2FF88E
:10150000E6300B044EF68005FFEEF45FF6C3228C46
:10151000608D617448D39F500122EF24D0C313FF24
:1015200025E02400F582E43400AD82F5628D63EF9E
:1015300054F8131313541FFEEF5407FF7401A80748
:10154000088002C333D8FCFF300C0AEE901E94933F
:101550005F7002D322A2AF920DC2AF856382856213
:1015600083E560F0A3E561F0A20D92AF74482EF818
:10157000E64FF6C322759B8F539BCF53F1F0121D9C
:10158000A38F5EC200C20C121DA3C3EF955EFE20A6
:101590000C0EE59B30E5098F5ED20C539BCF800883
:1015A000300C05E59B20E408EEC3940A40D9802066
:1015B000759F21E4F55ED55EFDE59BC330E601D362
:1015C000920DA20D300701B34004D2008002C20088
:1015D000759B8043F10F228F628E618D608C5FE47A
:1015E000F563E47B0AFAF9F8AF62AE61AD60AC5F17
:1015F000120158EB2430FF74932563F8A607AF62FD
:10160000AE61AD60AC5FE47B0AFAF9F81201588F65
:10161000628E618D608C5FE4FFFEFDFCAB62AA61AF
:10162000A960A85FC312020E60070563E563B40AF0
:10163000B1AF63227F0C121B12EF7051A80EA60CE3
:10164000749F650E702C789DE6FFB42B0F08E6B4EE
:101650002B0A08E6B42B05750B02C322EF645E70FB
:1016600019789EE6645E701208E6B45E0D750B0391
:10167000C322A80EE6B40A02C322050E74B1B50E49
:101680000CAA18A9191202BC75EF1080FED322C053
:10169000E0C0D075D000C000C007309821C298C308
:1016A000E569956BFFEF540F6401C37001D3400EE1
:1016B000A86BA699056B7483B56B03756B73309932
:1016C0001BC299C215E56A656C6011D215A86AE65D
:1016D000F599056A7493B56A03756A83D007D000DB
:1016E000D0D0D0E0327597A5E4F560F55FF55EF5F2
:1016F0005DE47FCCFEFDFCAB60AA5FA95EA85DC384
:1017000012020E501800E5602401F560E4355FF523
:101710005FE4355EF55EE4355DF55D80D4A2AF92A1
:101720000BC2AF7597DE7597ADA20B92AF22E5386D
:10173000901E8C9390003FF0A201E433901E7A75C6
:10174000F006120283E475F006A42583F583E58292
:101750002538F582E43583F583E493900034F03046
:10176000010790003374C7F022E538901E86936419
:10177000CF900033F022300843C208A2AF920CC2CF
:10178000AF900049E0FCA3E0FDA3E0FEA3E0FF90E2
:101790000071120246A20C92AF900071E0F8A3E033
:1017A000F9A3E0FAA3E0FB7FC07E0A7DC37C0812A8
:1017B000015890003DEEF0A3EFF0D20922A2AF92C3
:1017C0000CC2AF12172E90003FE0FFE5905403FECD
:1017D000EF4EF0E04403F590900033E0F5D4A3E041
:1017E000F5D585383720070D0538E538D394054001
:1017F00010E4F538221538E538D3940540037538E0
:101800000522AC077409D39C50012274017E00A804
:1018100004088005C333CE33CED8F9FF300C1090C6
:101820001E92E4935EFA7401935F4A7002D32274AD
:10183000202CF582E43400F583EDF0EF4247EE42D0
:1018400046C322C2A953E6DF78B2E664027034A22E
:10185000AF920CC2AFE59054034403F59043D5FC1E
:10186000A20C92AF53917B759F30E478B2F6900052
:101870003DF0A3F0D20985443D85453EAF3EAE3DE7
:101880001211E92290008BE4F0A37407F07F051297
:101890001DDA900044EFF07F04121DDA900048EF4B
:1018A000F07F3A121C6990004DEEF0A3EFF0C213E6
:1018B000C214E4F531F532900040F0A3F0900089B5
:1018C000F0A3F02230ED3B78B1E6FF25E02483F56C
:1018D00082E43400F583E5BEF0A3E5BDF0C2ED740B
:1018E00001A807088002C333D8FC427178B106E62C
:1018F000C394034002E4F678B1E6901E9893F5BBDA
:10190000D2EC22EF24D0C313FF54F8131313541F47
:10191000FEEF5407FF7401A807088002C333D8FC08
:10192000FF744E2EF8E65F601474482EF8E65F6090
:101930000C74482EF8E6FEEFF45EF6D322C322AF15
:1019400043AE42AD41AC408F308E2F8D2E8C2DC2D8
:10195000AF85F94385FA42A2DFE433F5238557408A
:10196000855841D2AFE523600DE54220E7080541E7
:10197000E5417002054022121B63121D5E121D928A
:10198000121DF4E4F5F9F5FA121E4CD2DED2CA901B
:101990000032740FF0C20075443F7545FFC202C2A9
:1019A00007C205E478B2F690003DF0A3F022120CD5
:1019B00018120AC578B2E6FB701D90003C7410F056
:1019C00090003512025200000000E490004FF090A9
:1019D0000052F0A3F0800AEBB40206121776121E32
:1019E0003B5371FC227430D39F500B7439C39F401A
:1019F00005EF9430FF227461D39F500B7466C39F30
:101A00004005EF24A9FF227441D39F500B7446C3B5
:101A10009F4005EF24C9FF227FFF2274017E00A8AA
:101A200007088005C333CE33CED8F9FFE54C5EFC02
:101A3000E54D5F4C6018E5465EFCE5475F4C600E87
:101A4000EFF4FFEEF4FEEF5247EE5246D322C322EC
:101A500030120720A124C2128020A2A14003D3800B
:101A600001C3401620121343E602B205A205E43377
:101A7000FDC20C7F02121802D2127F02121DDAEF91
:101A800024FF9205221216E5121DFF121DC012003E
:101A90000A121E09121E1D121E31121E59121D138A
:101AA000121D26121DCD121E27121D70121E13129A
:101AB0001E5D021E4520910790008E7401F0229059
:101AC000008EE0601E121DA390008EE0B40106742B
:101AD00002F08F7222C3EF9572C394084005E49020
:101AE000008EF022AE6CEEFDAE6AEEC39DFDED54AD
:101AF0000F640170037F1422A86CA607C2AC056CAA
:101B00007493B56C03756C83D2AC201502D2997FA7
:101B10000022AE6BEEFDAE69EEC39DFDED540F707D
:101B2000037F1522A869E6A807F6C2AC056974838D
:101B3000B56903756973D2AC7F002275D11875B38E
:101B40009575BC2075B20175B93B75DF0175E8C0AC
:101B5000C2EDE478B1F6E6901E9893F5BBD2ECE4C2
:101B6000F5712275D909E4F59E43DA0A43DB0A755B
:101B7000F70275960243F780F5FBF5FCF5E9F5EA07
:101B800053F77F43E610F557F5582278B2E67021F7
:101B900020061EA20592071215752000031204D21A
:101BA00012066390003B74FFF0C203C20278B27663
:101BB00002225391FB7593F8759207859395859250
:101BC00094759104EFD39400400BE59130E7FB53FB
:101BD000917F1F80EF5391FB22C211E4F510750B2A
:101BE0000812000E850E11750F59850F16C210E4EC
:101BF000900057F0A3F0900069F0A3F002141F7555
:101C000080FF7590FF75A0FF75F13F75F2FE43A44C
:101C10001043A5FC75D4CE75D5FF75E10175E202C0
:101C200043E3C022789EE6FF1219E5EFF46017EF58
:101C3000C454F0F50C08E6FF1219E5EFF46007EF65
:101C4000250CF50CC322D322121AB590008EE0FFAA
:101C5000B4010B90008DE07005EFF07F0122900041
:101C60008EE090008DF07F0022EF24D0C31325E09A
:101C70002400F582E43400F583A2AF920CC2AFE0F9
:101C8000FEA3E0FFA20C92AF2241008E0041008D26
:101C90000001B200C1044200300000C192025900AC
:101CA00000C11700E4FCFD1215D7EFF4600F749328
:101CB0002FF8E6AD0E050EA805F61F80ED2253891C
:101CC0000F438920758D96538EF4438E08858D8B36
:101CD000C28FD28E227409D39F5006742FC39F5097
:101CE000067448D39F5002D322C322900045EFF0E0
:101CF000FD7C007E017FC01200788E2B8F2C2290FD
:101D0000003DE0F51CA3E0F51DC216E490007DF057
:101D1000A3F022AF885388AF758D96EF5440FEEF45
:101D200054104E428822E5C8540453C8FB75CBFFBB
:101D300075CA3443C80442C822759840121CBE12AA
:101D40001DE7C215439810D2BCD2AC22E56A656C7F
:101D50006009C3E56A956C540FFF227F1022538EF1
:101D6000BF538E7F5391FE5391F7E4F593F5922282
:101D7000C2DE75D909759E01759C0175FA04D2DE23
:101D800022900081EEF0A3EFF090007FECF0A3ED45
:101D9000F022438E045389FB438901E4F58CF58AD4
:101DA000C28C22A2AF920EC2AFAF58AE57A20E9213
:101DB000AF22853D1A853E1B1202EFAE1AAF1B22E1
:101DC00075A5FC75F2FE75D5F375EE0222E591540A
:101DD000045391FB43910442912274202FF582E435
:101DE0003400F583E0FF22756A83756C837569732F
:101DF000756B7322901E6EE493F59F759B80227520
:101E0000A41175F13F75D4CF2275E34075E10175DA
:101E1000E2022253F77F75DA0BE4F5FC2275BB086A
:101E200053E8F843E8C222758E087589204388403C
:101E300022539DFC439D30439B8022121DB28E3D58
:101E40008F3E0211E975E6B875A89A2243DA02437B
:101E5000DB0222120D65021398E4F5A922439810C3
:101E600022759602227F0022C35078B65D37323049
:101E700031323031230313230313F77F7FDFDFF782
:101E8000EFEFFBFBBFBF04010204010218908424A2
:0B1E900060480074600F0000060708A7
:00000001FF
