:020000040000FA
:0A0000000214117597DE7597AD220A
:10000B00021057750E9E74B2650E6008A80EE4F6CA
:10001B00050E80F2750E9E2202182474017E00A834
:10002B0007088005C333CE33CED8F9FFE54D5EFC10
:10003B00E54E5F4C6018E5475EFCE5485F4C600E93
:10004B00EFF4FFEEF4FEEF5248EE5247D322C322F9
:10005B000214A012198FC3220202EFEF8DF0A4A895
:10006B00F0CF8CF0A428CE8DF0A42EFE22BC000B7A
:10007B00BE0029EF8DF084FFADF022E4CCF875F0D3
:10008B0008EF2FFFEE33FEEC33FCEE9DEC984005B2
:10009B00FCEE9DFE0FD5F0E9E4CEFD22EDF8F5F078
:1000AB00EE8420D21CFEADF075F008EF2FFFED3380
:1000BB00FD4007985006D5F0F222C398FD0FD5F0FE
:1000CB00EA22E88FF0A4CC8BF0A42CFCE98EF0A4F0
:1000DB002CFC8AF0EDA42CFCEA8EF0A4CDA8F08BBE
:1000EB00F0A42DCC3825F0FDE98FF0A42CCD35F004
:1000FB00FCEB8EF0A4FEA9F0EB8FF0A4CFC5F02E95
:10010B00CD39FEE43CFCEAA42DCE35F0FDE43CFCFD
:10011B002275F008758200EF2FFFEE33FECD33CD45
:10012B00CC33CCC58233C5829BED9AEC99E5829892
:10013B00400CF582EE9BFEED9AFDEC99FC0FD5F091
:10014B00D6E4CEFBE4CDFAE4CCF9A88222B800C108
:10015B00B90059BA002DEC8BF084CFCECDFCE5F075
:10016B00CBF97818EF2FFFEE33FEED33FDEC33FCBC
:10017B00EB33FB10D703994004EB99FB0FD8E5E465
:10018B00F9FA227818EF2FFFEE33FEED33FDEC3347
:10019B00FCC933C910D7059BE99A4007EC9BFCE9D6
:1001AB009AF90FD8E0E4C9FAE4CCFB2275F010EF12
:1001BB002FFFEE33FEED33FDCC33CCC833C810D755
:1001CB00079BEC9AE899400AED9BFDEC9AFCE899A9
:1001DB00F80FD5F0DAE4CDFBE4CCFAE4C8F922C38E
:1001EB00E49FFFE49EFEE49DFDE49CFC22EB9FF567
:1001FB00F0EA9E42F0E99D42F0EC6480C86480987E
:10020B0045F022EB9FF5F0EA9E42F0E99D42F0E8C3
:10021B009C45F022E8600FECC313FCED13FDEE13CD
:10022B00FEEF13FFD8F122E86010ECA2E713FCED10
:10023B0013FDEE13FEEF13FFD8F022ECF0A3EDF05D
:10024B00A3EEF0A3EFF022A8828583F0D083D082B7
:10025B00120269120269120269120269E473E493D1
:10026B00A3C583C5F0C583C8C582C8F0A3C583C524
:10027B00F0C583C8C582C822A42582F582E5F03576
:10028B0083F58322D083D082F8E4937012740193A8
:10029B00700DA3A393F8740193F5828883E47374B0
:1002AB000293B5F0067403936860E9A3A3A3A3803C
:1002BB00D88A838982E473EC8EF0A4CCC5F0CCCDC4
:1002CB00F8EFA4CEC5F02DFDE43CFCE8A42EC8C588
:1002DB00F03DFDE43CFCEFA4FFE5F028FEE43DFD22
:1002EB00E43CFC22C0E0C0F0C083C082C0D075D01B
:1002FB0000C000C001C002C003C004C005C006C0DE
:10030B0007121A8BC3E5449530F528E543952FF575
:10031B0027E542952EF526E541952DF525E5362564
:10032B0028FFE5353527FEE5343526FDE533352544
:10033B00FC780212021FC004C005C006C007AF360E
:10034B00AE35AD34AC33780112021FD003D002D0DE
:10035B0001D000EF2BF536EE3AF535ED39F534ECEF
:10036B0038F533E53D2536F53DE53C3535F53CE5D2
:10037B003B3534F53BE53A3533F53AD54022AF3DC5
:10038B00AE3CAD3BAC3A90004D120246753D00754C
:10039B003C00753B00753A0090005AE0F540D208DE
:1003AB00AF36AE35AD34AC33780112021F8F288EC9
:1003BB00278D268C25E47F697E02FDFCAB28AA27BE
:1003CB00A926A825D312020E401AE5289465F52814
:1003DB00E5279402F527E5269400F526E5259400FC
:1003EB00F525800C752804752700752600752500EA
:1003FB00756E008527708528715388CFE53970039A
:10040B000204B6E527C313900040F0E52813A3F0D0
:10041B00900040E0FF7E00E539FBFD7C001200669A
:10042B008E258F267E00A3E0FFAD03120066EE251E
:10043B0026F526E43525F525E5262528F528E52599
:10044B003527F527852770852871C374FF9539F5F6
:10045B0025E525602FAF277E00AD251200669000A5
:10046B0040EEF0A3EFF0AF287E00AD25120066EE54
:10047B00FFE02FF0900040E03400F0E0F527A3E020
:10048B00F5288006752700752801C3E5719528901E
:10049B000041F0E5709527900040F0756F04E57012
:1004AB00C313F570E57113F5718003756F03C3E426
:1004BB009528F528E49527F52785288A85278CD25A
:1004CB008C759D00539BCF12187A53F3DF43B80200
:1004DB00D007D006D005D004D003D002D001D00075
:1004EB00D0D0D082D083D0F0D0E0327561019000B3
:1004FB0081E0FEA3E0FFEE60030206CDEF248A60ED
:10050B001B24F6606C24FB70030205F0248560034A
:10051B000206CD900081E4F0A37476F02004037FF3
:10052B000022C20490003DE0F51EA3E0F51FAE1CB7
:10053B00AF1DE4FCFDC006C007AE1EAF1FAB07AA84
:10054B0006D007D006C3EF9BFBEE9AFAED9400F9A9
:10055B00EC9400F8900085E0FEA3E0FFE41200CDE0
:10056B0090007D120246E4F561900081F0A3748047
:10057B00F0E56170037F012290007DE0F8A3E0F9C4
:10058B00A3E0FAA3E0FBC000C001C002C003AE3180
:10059B00AF32E4FCFDC006C007AE1EAF1FAB07AA0F
:1005AB0006D007D006C3EF9BFBEE9AFAED9400F949
:1005BB00EC9400F8900083E0FEA3E0FFE41200CD82
:1005CB00D003D002D001D000EB2FFFEA3EFEE93D75
:1005DB00FDE83CFC90007D120246E4F56190008141
:1005EB00F0A37485F0E56170037F0122851E1C85E5
:1005FB001F1D90007DE0FCA3E0FDA3E0FEA3E0FF48
:10060B00780812023290007D12024690007DE0FCC9
:10061B00EC33506090007DE0FCA3E0FDA3E0FEA373
:10062B00E0FF1201EA90007D120246E4FF7E08FD16
:10063B00FC90007DE0F8A3E0F9A3E0FAA3E0FBD384
:10064B0012020E4008751A08751B00800A90007F75
:10065B00E0F51AA3E0F51BC3E53F951BE53E951AA4
:10066B005003E48054C3E53F951BF51BE53E951AFB
:10067B00F51A8049E4FF7E08FDFC90007DE0F8A3AD
:10068B00E0F9A3E0FAA3E0FBD312020E4008751ABF
:10069B0008751B00800A90007FE0F51AA3E0F51B9C
:1006AB00E53F251BF51BE53E351AF51AC3E51B95F2
:1006BB003FE51A953E500674FFF51AF51BD216024C
:1006CB00051EE4F561900081F0A3F07F0322121E5A
:1006DB00EFE4F544F543F542F541F530F52FF52EF2
:1006EB00F52DF59D90007912025200000000759FC8
:1006FB00687F01121CCD753E7F753FFFAF3FAE3E4D
:10070B0012137F759C02E4F538C201121909A20C71
:10071B0092AF7560C81560E560D3940040077F0306
:10072B00121CCD80F0E4F538F55F121909A20C927A
:10073B00AFE55FC39403501BAF5F055FEF25E0246C
:10074B00F6F582E4341EF583E493F561740193F5B9
:10075B0062802DAE61AF62E4FCFD900075E0F8A302
:10076B00E0F9A3E0FAA3E0FB1200CD900079E0F8EA
:10077B00A3E0F9A3E0FAA3E0FB1201588E618F62AC
:10078B00900079E0FCA3E0FDA3E0FEA3E0FF900066
:10079B0075120246900079E0F8A3E0F9A3E0FAA302
:1007AB00E0FBE4FCFDEB2562FFEA3561FEED39FD74
:1007BB00EC38FC900079120246C3E49562FFE49595
:1007CB0061F5938F9285939585929453917F759153
:1007DB0004E4F560539BCFE560C394045024E5918A
:1007EB0030E70553917F0560E59B30E4EA539BEFBF
:1007FB00A2AF920CC2AF85F94685FA45A20C92AF17
:10080B0080D55391FBC3E562946DE561940240037F
:10081B00020735E546AE457806C333CE33CED8F95D
:10082B00F5468E45E42546F54674803545F545AECF
:10083B0045AF46E4FCFDFB7A80F9F8D31201F85082
:10084B000675457F7546FF85453E85463F759FFF7F
:10085B00E4F59CE59054034403F59043D5FC2253F7
:10086B00F1F0759F307F01121CCD539BCFE4F593B4
:10087B00F592F595F594759104F52FF530D20DE5BC
:10088B009120E76BE59B543060F5300D0BA2AF92D6
:10089B000CC2AF5391FB800FA2AF920CC2AF53911E
:1008AB00FB85952F859430E4F595F594759104A20D
:1008BB000C92AFE59B30E4152007087537017538AE
:1008CB00028006753704753803C2018018E59B302A
:1008DB00E513200708753704753805800675370151
:1008EB00E4F538D201539BCF300D04C20D8090E557
:1008FB009130E703D20622C206AE2FAF307C007DCB
:10090B00021202C28F628E618D608C5F121A8BE4B1
:10091B007F02FEFDFCAB62AA61A960A85F1200CD4D
:10092B008F368E358D348C33A2AF920CC2AF539170
:10093B00FBAF94AE957C007D0C1202C2A804A905F6
:10094B00AA06C3E5629FF562E5619AF561E56099D8
:10095B00F560E55F98F55FE4F56EC39562F571E4BC
:10096B009561F570C28C85718A85708CD28CC28D25
:10097B00A20C92AF12187A756F03900049E0FFC377
:10098B001375F006A490005AF0F540539BCF539D7E
:10099B00CF43B802D2A943E620E4FCFDFEAB36AA56
:1009AB0035A934A8331200CDA804A905AA06AB07B4
:1009BB007F407EAE7DEB7C0212015890003DEEF045
:1009CB00A3EFF0C208C209E4F53DF53CF53BF53A5F
:1009DB0090004D12025200000000C20AAF3FAE3E23
:1009EB0012137F121E3322E4F512F513121D3F92E0
:1009FB000F789EE6640A7036FF121EBD7512008FCB
:100A0B0013789E764208764C08764408764308762F
:100A1B0052087645087646087620750EA6AF13AEBB
:100A2B0012121DBFAF0E050EA807760AC322789EC1
:100A3B00E66452701808E6B4531308E6B4540E7506
:100A4B000E9EAA18A9191202BCD211C322E50BB42F
:100A5B000205E4F510C322E50BB403127510017502
:100A6B000E9EAF0E050EA807E4F6F50DC322789E79
:100A7B00E6643D7072F512F513F55F7511A2E51181
:100A8B00C3950E5025055FA811E624D0FB7409C34E
:100A9B009B4017AE12AF137C007D0A120066EF2B42
:100AAB00F513EC3EF512051180D4200F347430D3BE
:100ABB00950C40157403955F50028014AD13D20C46
:100ACB00AF0C12194E920F80187405C3955F50042A
:100ADB00750E9E22D20CAD13AC12AF0C1216A49253
:100AEB000F750E9EA20F22789EE6643F704D750E19
:100AFB009E200F39D20F7430D3950C40157409D347
:100B0B00950C4029AF0C121EBD7512008F13AE123F
:100B1B0080167430D3950C50147448950C400EAF5E
:100B2B000C121D848E128F13121DBFC20F200F08C3
:100B3B00AF0E050EA807760AA20F22789EE6642355
:100B4B007022750E9E78A2E624D0F513E434FFF5DF
:100B5B0012200F0D451324FF920BAF0C121631927E
:100B6B000FA20F22750E9ED322E57220E003020C1A
:100B7B0096900087E0FEA3E0FF900075EEF0A3EFE8
:100B8B00F078B3E67047900039EEF0A3EFF09000E9
:100B9B0039E0FEA3E0FF900030E0FCA3E0FD2FFF67
:100BAB00EC3EFEEF7802CEC313CE13D8F9FBAA06A8
:100BBB00ECC313FEED132BFFEE3AFE900039F0A3BE
:100BCB00EFF0900030EEF0A3EFF0020C9690007572
:100BDB00E0FEA3E0FF900039E0FCA3E0FDD39FEC27
:100BEB009E4009E4900075F0A3F0800DC390007651
:100BFB00E09DF0900075E09CF0900035E0F8A3E0EC
:100C0B00F9A3E0FAA3E0FB900075E0FEA3E0FFE49C
:100C1B00FCFDEB2FFFEA3EFEED39FDEC38FC9000BE
:100C2B003512024690003CE014F0705F900035E006
:100C3B00FCA3E0FDA3E0FEA3E0FF780412021F90EB
:100C4B000075EEF0A3EFF0900075E0FEA3E07806E0
:100C5B00CEC313CE13D8F9900053F0900035120287
:100C6B00520000000090003C7410F0900075E0FE04
:100C7B00A3E0FF7C677D201202C2781012021FEEE8
:100C8B00543FFE900056EEF0A3EFF0E57230E12BEF
:100C9B00900089E0FFA3E0900075CFF0A3EFF090F8
:100CAB000075E0FEA3E0FF7C307DEB1202C27810F2
:100CBB0012021F90004AEEF0A3EFF0223006102034
:100CCB00030DD203121EA0900046EEF0A3EFF030FE
:100CDB000623121EA0900046E0FCA3E0FDC3EF9D8F
:100CEB00FFEE9CFED3EF9488EE94135003020E1389
:100CFB00C203C20622E57220E003020E09900048EF
:100D0B00E0FF602390004CE0FE601C78B3E6B40279
:100D1B0013900053E0C39E400B0524E5249F40072E
:100D2B00D2028003E4F52490003BE014F060030250
:100D3B000E09900054E0FEA3E0FFA3E0FCA3E0FD4E
:100D4B00D39FEC9E5003020DE590003EE095329050
:100D5B00003DE095314003020DE5C3ED9FF560ECDE
:100D6B009EF55F900051E0FEA3E0FF7C0C7DCC1262
:100D7B0002C2781012021F8E618F6290003EE02536
:100D8B0032FF90003DE03531C313FEEF132562F5C2
:100D9B0062EE3561F561900058E0FEA3E0FFC3E51C
:100DAB00629FF562E5619EF561900051E0FEA3E064
:100DBB00FF7C007D201202C2A804A905AA06AB077E
:100DCB00AE5FAF60E4FCFD1200CD781012021FC3C2
:100DDB00E5629FE5619E5002D20290003B7464F085
:100DEB0090003DE0FFA3E0900058CFF0A3EFF09010
:100DFB000056E0FFA3E0900054CFF0A3EFF03002D9
:100E0B000712198FD206C20222755E0190005BE0B9
:100E1B00FEA3E08EF012028F0E3B00000E4501A9DF
:100E2B000ECA01E60EE901EB0F1401F500000F3FAE
:100E3B0090005B7401F0A374A9F01217C94003D39F
:100E4B008001C340037F0022E510B4010E750E9E96
:100E5B00E50B640270561209F28051E510704D12C9
:100E6B0009F24018E50B64036042AF0E050EA807AC
:100E7B00764FAF0E050EA807764B8028AF0E050EEA
:100E8B00A8077645AF0E050EA8077652AF0E050ED6
:100E9B00A8077652AF0E050EA807764FAF0E050EBC
:100EAB00A8077652AF0E050EA807760AE50B64026B
:100EBB00604A75119E90005B7401F0A374E6F0A27A
:100ECB00104003D38001C340037F0022D210E511F1
:100EDB00650E602690005B7401F0A374EBF0121E9C
:100EEB005A7401C39F50028001C340037F0022A8A4
:100EFB0011E6FF121BFF051180D4C21030112C908C
:100F0B00005B7401F0A374F5F0121E5ABF1003D3EB
:100F1B008001C340037F0022E4F50C74FED3950CD3
:100F2B004004050C80F575EF1080FE12000E750B5A
:100F3B0008020E3BE4F55E90005BF0A3F07F03220A
:100F4B00121B31121D638F5E78B3E66003020FE153
:100F5B00E55E7003301426200621E5E85490600608
:100F6B0030EDFD75BB1FE55E6002C213121CA6A21D
:100F7B0005E433FDC20C7F0112194EC214121B9EE5
:100F8B007F05121EBD900048EFF07F04121EBD902E
:100F9B00004CEFF07F3A121D84900051EEF0A3EF5E
:100FAB00F07F06121EBDEF25E0FF121E1F7F4412BD
:100FBB001D84900071EEF0A3EFF07F46121D84901C
:100FCB000073EEF0FCA3EFF0FD900071E0FEA3E0E8
:100FDB00FF121E7E801378B3E6B4020DE55E700639
:100FEB00E5324531700312198F121EA08F5EE56535
:100FFB00655E6037E55E30E032F56590003DE0FC04
:10100B00A3E0FDC20C7F301216A4C20CAD3FAC3E68
:10101B007F361216A47F01121EBDEF24FF920BA286
:10102B000BE433FDC20C7F0112194E1211519000CB
:10103B0056E0FCA3E0FDC20C7F321216A490004ACE
:10104B00E0FCA3E0FDC20C7F340216A4C0E0C08319
:10105B00C082C0D075D000C000C006C007C28DE5ED
:10106B006F64037062E56E704F12191243F10FB289
:10107B0001E537300105901F028003901EFC93F5AC
:10108B009F756E00E571AE707802CEC313CE13D888
:10109B00F9FFC3E49FF571E49EF5705388CF85711A
:1010AB008A85708CD28C756F0043B80253F3DF5373
:1010BB009BCF539BCF021142156E5388CF85718AFC
:1010CB0085708CD28C8070E56F64047037756F03FC
:1010DB005388CF858A2A858C29900040E0FEA3E0B7
:1010EB00FFD3952AEE9529500302106AC3E52A9F78
:1010FB00F52AE5299EF529852A8A85298CD28C1219
:10110B001DD98033E56F701F539BCFF59D759D10D7
:10111B00756EFF5388CFF58AF58CD28C756F0153A2
:10112B00B8FD43F3208010E56FB4010B156EE56E2F
:10113B00C394F05002D202D007D006D000D0D0D04A
:10114B0082D083D0E032121EA0C3EF9567FFEE95DD
:10115B0066FED3900090E09F90008FE09E400302CC
:10116B001230121EA08E668F6720130578B3E670BF
:10117B00347F3C121D848E5F8F60E5326560700496
:10118B00E531655F601FE5606401455F700FD21448
:10119B00C20CAD32AC317F3C1216A48006855F3198
:1011AB00856032D21390008BE0F55FA3E0F560C34E
:1011BB0074FF9560F560743F955FF55F74FF256074
:1011CB00F5607401355FF55FFEAF60900051E0FC98
:1011DB00A3E0FD1202C2780E12021F90008DEEF0FA
:1011EB00A3EFF02569FFE5683EC313FEEF13FF90F5
:1011FB00008DEEF0A3EFF08E68F569C3952CEE959C
:10120B002B500A90008DE52BF0A3E52CF020131545
:10121B0090008DE0F531A3E0F532C20CAD32AC316C
:10122B007F3C1216A422121EAF8E3E8F3F20160358
:10123B000212CDE4FCFD7B997A197901F81200CDED
:10124B00781012021F8E5F8F60C3E560953FE55FDC
:10125B00953E500674FFF55FF560E55FF4FEE560C3
:10126B00F44E704BE53F2446FFE53E3417FE7C0001
:10127B007D0B120066EEFF7E00D3900043E09F9043
:10128B000042E09E400EA3E024FFF0900042E034C9
:10129B00FFF08022C3900043E09F900042E09E50FD
:1012AB0015A3E004F07006900042E004F08007E420
:1012BB00900042F0A3F0900042E0A3E0F539C21693
:1012CB008006853E5F853F60AF60AE5F02137F7423
:1012DB0009D3950D403AAF0D1200265030AF0D12C9
:1012EB001EBD7512008F13851682758300E50DF0F8
:1012FB0005167F6DEFB5160375165DE51385168222
:10130B00758300F00516EFB5160375165D050D22F6
:10131B007430D3950D4004750D30227448D3950D60
:10132B00404EAF0D121A4F5042AF0D121D848E124C
:10133B008F13851682758300E50DF005167D6DED17
:10134B00B5160375165DE512851682758300F005DB
:10135B0016EDB5160375165DE513851682758300BC
:10136B00F00516746DB5160375165D050D050D228A
:10137B00E4F50D22AB07AA06EB7806CEC313CE130A
:10138B00D8F9FBAA06655B7003E55A6A60778A5A3F
:10139B008B5BD3EB9499EA9401500C301730C3EB71
:1013AB009466EA94014027E4F9C374FF9BFB740332
:1013BB009AFAEBAE027802CEC313CE13D8F9FDAC7A
:1013CB0006C3EB9DF564EA9CF563D217801E790288
:1013DB00EBAE027802CEC313CE13D8F92404FDE48E
:1013EB003EFCEB2DF564EA3CF563C217A2AF920EFF
:1013FB00C2AF89558563568564578A5C8B5DA20E97
:10140B0092AF75F74222120003787FE4F6D8FD7590
:10141B0081B302145B021AC3E493A3F8E493A340D1
:10142B0003F68001F208DFF48029E493A3F8540754
:10143B00240CC8C333C4540F4420C8834004F4564F
:10144B00800146F6DFE4800B010204081020408087
:10145B00901DA4E47E019360BCA3FF543F30E509CB
:10146B00541FFEE493A360010ECF54C025E060A887
:10147B0040B8E493A3FAE493A3F8E493A3C8C5821A
:10148B00C8CAC583CAF0A3C8C582C8CAC583CADF88
:10149B00E9DEE780BEC0E0C083C082C0D075D0005B
:1014AB00C007E5F754606460705375F782C2AF856F
:1014BB005596C2D8C2D98557FB8556FC855DE98503
:1014CB005CEA75F70230D91785F95485FA53742005
:1014DB002554F554E43553F5538554E98553EA30D7
:1014EB00D81785F95485FA5374202554F554E435EF
:1014FB0053F5538554FB8553FCD2AFD20A30DF181A
:10150B00C2AFC2DF0559E55970020558D2AFFF9043
:10151B000032E05F7002D204D007D0D0D082D083EB
:10152B00D0E032E510B401031212DA755E019000BF
:10153B006DE0FEA3E08EF012028F15550000155FD3
:10154B00022B157D0230000015A990006D7402F07E
:10155B00A3742BF0E516650F60033010037F002298
:10156B00D210E516650F603290006D7402F0A37413
:10157B0030F0121E5A7401C39F50028001C3400306
:10158B007F0022850F82758300E0FF121BFF050F82
:10159B00746DB50FCD750F5D80C8C21080ACE4F5CE
:1015AB005E90006DF0A3F07F03229000207401F099
:1015BB00E4A3F0A3F0A37411F0E4A3F0A37405F07B
:1015CB00A37403F0A314F0E4A3F0900000F0A3F0D5
:1015DB00900002F0A3F0900004F0A3F0900006F04E
:1015EB00A3F0900008F0A304F090000A7415F0A388
:1015FB007460F0E490000CF0A3F090000EF0A3F0F8
:10160B00900010F0A37480F0900012E4F0A37480AB
:10161B00F09000147432F0A374C8F09000167401AB
:10162B00F0A37490F0228F60121E095001227401F6
:10163B007E00A860088005C333CE33CED8F9FF7483
:10164B0030D395604018EF300B07424EEE424D8081
:10165B0046F4FFEEF4FEEF524EEE524D80397448D5
:10166B00D395604032E56024D0C313F56054F81372
:10167B001313541FFFE5605407FE7401A80608807E
:10168B0002C333D8FCFE744F2FF8E6300B044EF632
:10169B008005FFEEF45FF6C3228C618D627448D334
:1016AB009F500122EF24D0C313FF25E02400F582C5
:1016BB00E43400AD82F5638D64EF54F813131354C7
:1016CB001FFEEF5407FF7401A807088002C333D82D
:1016DB00FCFF300C0AEE901F2E935F7002D322A2F8
:1016EB00AF920DC2AF856482856383E561F0A3E59C
:1016FB0062F0A20D92AF74492EF8E64FF6C3227535
:10170B009B8F539BCF53F1F0121EA08F5FC200C271
:10171B000C121EA0C3EF955FFE200C0EE59B30E56F
:10172B00098F5FD20C539BCF8008300C05E59B20B3
:10173B00E408EEC3940A40D98020759F21E4F55F3D
:10174B00D55FFDE59BC330E601D3920DA20D3007AB
:10175B0001B34004D2008002C200759B8043F10F9D
:10176B00228F638E628D618C60E4F564E47B0AFAF0
:10177B00F9F8AF63AE62AD61AC60120158EB243087
:10178B00FF74942564F8A607AF63AE62AD61AC60DD
:10179B00E47B0AFAF9F81201588F638E628D618C23
:1017AB0060E4FFFEFDFCAB63AA62A961A860C312F3
:1017BB00020E60070564E564B40AB1AF64227F0CC6
:1017CB00121C2DEF7051A80EA60C74A0650E702C78
:1017DB00789EE6FFB42B0F08E6B42B0A08E6B42B71
:1017EB0005750B02C322EF645E7019789FE6645E89
:1017FB00701208E6B45E0D750B03C322A80EE6B497
:10180B000A02C322050E74B2B50E0CAA18A919123E
:10181B0002BC75EF1080FED322C0E0C0D075D000A3
:10182B00C000C007309821C298C3E56A956CFFEFE2
:10183B00540F6401C37001D3400EA86CA699056CBC
:10184B007484B56C03756C7430991BC299C215E521
:10185B006B656D6011D215A86BE6F599056B7494E9
:10186B00B56B03756B84D007D000D0D0D0E032E5D8
:10187B0038901F1A9390003FF0A201E433901F0899
:10188B0075F006120283E475F006A42583F583E553
:10189B00822538F582E43583F583E493900034F0A8
:1018AB0030010790003374C7F022E538901F149372
:1018BB0064CF900033F022300843C208A2AF920CE1
:1018CB00C2AF90004DE0FCA3E0FDA3E0FEA3E0FF60
:1018DB00900075120246A20C92AF900075E0F8A32F
:1018EB00E0F9A3E0FAA3E0FB7FC07E0A7DC37C088E
:1018FB0012015890003DEEF0A3EFF0D20922A2AFF7
:10190B00920CC2AF12187A90003FE0FFE59054039F
:10191B00FEEF4EF0E04403F590900033E0F5D4A3D6
:10192B00E0F5D585383720070D0538E538D3940514
:10193B004010E4F538221538E538D394054003758B
:10194B00380522AC077409D39C50012274017E0028
:10195B00A804088005C333CE33CED8F9FF300C1062
:10196B00901F2CE4935EFA7401935F4A7002D322AA
:10197B0074202CF582E43400F583EDF0EF4248EE51
:10198B004247C322C2A953E6DF78B3E66402703440
:10199B00A2AF920CC2AFE59054034403F59043D52C
:1019AB00FCA20C92AF53917B759F30E478B3F69009
:1019BB00003DF0A3F0D20985453E85463FAF3FAED3
:1019CB003E12137F2290008FE4F0A37407F07F0583
:1019DB00121EBD900048EFF07F04121EBD90004C0C
:1019EB00EFF07F3A121D84900051EEF0A3EFF0C29E
:1019FB0013C214E4F531F532900044F0A3F09000DB
:101A0B008DF0A3F02230ED3B78B2E6FF25E0248782
:101A1B00F582E43400F583E5BEF0A3E5BDF0C2ED3D
:101A2B007401A807088002C333D8FC427278B2064F
:101A3B00E6C394034002E4F678B2E6901F3293F5C6
:101A4B00BBD2EC22EF24D0C313FF54F8131313545F
:101A5B001FFEEF5407FF7401A807088002C333D899
:101A6B00FCFF744F2EF8E65F601474492EF8E65FA6
:101A7B00600C74492EF8E6FEEFF45EF6D322C32217
:101A8B00AF44AE43AD42AC418F308E2F8D2E8C2D9B
:101A9B00C2AF85F94485FA43A2DFE433F5238558B9
:101AAB0041855942D2AFE523600DE54320E7080598
:101ABB0042E5427002054122E4F5A9121D1A121EDD
:101ACB0047121C567508FF75091E750AF37517FF2B
:101ADB0075180075195E121CF4121AFA1219D0D26D
:101AEB00AF121A10121BD0120F4B121EE980F212FA
:101AFB001C7E121E6C121E8F121ED7E4F5F9F5FA1E
:101B0B00121EE2D2DED2CA900032740FF0C2007500
:101B1B00453F7546FFC202C207C205E478B3F69093
:101B2B00003DF0A3F022120CC7120B7478B3E6FB46
:101B3B00701D90003C7410F09000351202520000A2
:101B4B000000E4900053F0900056F0A3F0800AEBF5
:101B5B00B402061218C21212315372FC227430D323
:101B6B009F500B7439C39F4005EF9430FF22746173
:101B7B00D39F500B7466C39F4005EF24A9FF2274BB
:101B8B0041D39F500B7446C39F4005EF24C9FF22DE
:101B9B007FFF2230120720A121C212801DA2A1407B
:101BAB0003D38001C34013201210B205A205E43306
:101BBB00FDC20C7F0212194ED2127F02121EBDEF14
:101BCB0024FF9205222091079000927401F022903D
:101BDB000092E0601E121EA0900092E0B401067409
:101BEB0002F08F7322C3EF9573C394084005E49002
:101BFB000092F022AE6DEEFDAE6BEEC39DFDED548B
:101C0B000F640170037F1422A86DA607C2AC056D8B
:101C1B007494B56D03756D84D2AC201502D2997F87
:101C2B000022AE6CEEFDAE6AEEC39DFDED540F705F
:101C3B00037F1522A86AE6A807F6C2AC056A74846E
:101C4B00B56A03756A74D2AC7F002275D11875B36F
:101C5B009575BC2075B20175B93B75DF0175E8C090
:101C6B00C2EDE478B2F6E6901F3293F5BBD2ECE40A
:101C7B00F5722275D909E4F59E43DA0A43DB0A753E
:101C8B00F70275960243F780F5FBF5FCF5E9F5EAEB
:101C9B0053F77F43E610F558F5592278B3E67021D8
:101CAB0020061EA205920712170A2000031206D95E
:101CBB0012086A90003B74FFF0C203C20278B3763D
:101CCB0002225391FB7593F8759207859395859234
:101CDB0094759104EFD39400400BE59130E7FB53DF
:101CEB00917F1F80EF5391FB22C211E4F510750B0E
:101CFB000812000E850E11750F5D850F16C210E4CC
:101D0B0090005BF0A3F090006DF0A3F00215B57599
:101D1B0080FF7590FF75A0FF75F13F75F2FE43A430
:101D2B001043A5FC75D4CE75D5FF75E10175E202A4
:101D3B0043E3C022789FE6FF121B68EFF46017EFB6
:101D4B00C454F0F50C08E6FF121B68EFF46007EFC4
:101D5B00250CF50CC322D322121BD0900092E0FF6E
:101D6B00B4010B900091E07005EFF07F0122900021
:101D7B0092E0900091F07F0022EF24D0C31325E076
:101D8B002400F582E43400F583A2AF920CC2AFE0DD
:101D9B00FEA3E0FFA20C92AF224100920041009102
:101DAB000001B300C1044200300000C192025A008E
:101DBB0000C11700E4FCFD12176CEFF4600F749474
:101DCB002FF8E6AD0E050EA805F61F80ED22E537C0
:101DDB00300105901F268003901F2093FFE5905440
:101DEB0003FEEF4EF5902253890F438920758D9694
:101DFB00538EF4438E08858D8BC28FD28E2274093D
:101E0B00D39F5006742FC39F50067448D39F500224
:101E1B00D322C322900049EFF0FD7C007E017FC0EE
:101E2B001200788E2B8F2C2290003DE0F51CA3E046
:101E3B00F51DC216E4900081F0A3F02275984012B4
:101E4B001DF2121ECAC215439810D2BCD2AC22E5A9
:101E5B006B656D6009C3E56B956D540FFF227F10A9
:101E6B0022538EBF538E7F5391FE5391F7E4F5931C
:101E7B00F59222900085EEF0A3EFF0900083ECF04A
:101E8B00A3EDF022438E045389FB438901E4F58CC7
:101E9B00F58AC28C22A2AF920EC2AFAF59AE58A236
:101EAB000E92AF22853E1A853F1B1204F6AE1AAF77
:101EBB001B2274202FF582E43400F583E0FF22759A
:101ECB006B84756D84756A74756C7422901EFCE45A
:101EDB0093F59F759B802243DA0243DB0222120E9D
:101EEB001402152E759602227F0022C35078B65D20
:101EFB0037323031323031230313230313F77F7F13
:101F0B00DFDFF7EFEFFBFBBFBF0401020401021899
:101F1B0090842460485894946464589898A4A46856
:0A1F2B00680074600F00000607084C
:00000001FF
