:020000040000FA
:100000000212887597DE7597AD2222021095E59150
:1000100054045391FB439104429122021D71121822
:1000200050C32202169C74017E00A807088005C3F5
:1000300033CE33CED8F9FFE55C5EFCE55D5F4C6006
:1000400018E5565EFCE5575F4C600EEFF4FFEEF4EA
:10005000FEEF5257EE5256D322C3220213177420DA
:100060002FF582E43400F583E0FF2202097DE4F5F8
:10007000A92232020072EF8DF0A4A8F0CF8CF0A478
:1000800028CE8DF0A42EFE22BC000BBE0029EF8DE1
:10009000F084FFADF022E4CCF875F008EF2FFFEE0E
:1000A00033FEEC33FCEE9DEC984005FCEE9DFE0F1C
:1000B000D5F0E9E4CEFD22EDF8F5F0EE8420D21C77
:1000C000FEADF075F008EF2FFFED33FD40079850BF
:1000D00006D5F0F222C398FD0FD5F0EA22E88FF0A2
:1000E000A4CC8BF0A42CFCE98EF0A42CFC8AF0EDBF
:1000F000A42CFCEA8EF0A4CDA8F08BF0A42DCC3873
:1001000025F0FDE98FF0A42CCD35F0FCEB8EF0A4AA
:10011000FEA9F0EB8FF0A4CFC5F02ECD39FEE43C64
:10012000FCEAA42DCE35F0FDE43CFC2275F0087508
:100130008200EF2FFFEE33FECD33CDCC33CCC58222
:1001400033C5829BED9AEC99E58298400CF582EEDE
:100150009BFEED9AFDEC99FC0FD5F0D6E4CEFBE4C6
:10016000CDFAE4CCF9A88222B800C1B90059BA008E
:100170002DEC8BF084CFCECDFCE5F0CBF97818EFE9
:100180002FFFEE33FEED33FDEC33FCEB33FB10D7EA
:1001900003994004EB99FB0FD8E5E4F9FA227818AB
:1001A000EF2FFFEE33FEED33FDEC33FCC933C91006
:1001B000D7059BE99A4007EC9BFCE99AF90FD8E038
:1001C000E4C9FAE4CCFB2275F010EF2FFFEE33FE0A
:1001D000ED33FDCC33CCC833C810D7079BEC9AE87D
:1001E00099400AED9BFDEC9AFCE899F80FD5F0DAFE
:1001F000E4CDFBE4CCFAE4C8F922C3E49FFFE49E1B
:10020000FEE49DFDE49CFC22EB9FF5F0EA9E42F0AB
:10021000E99D42F0EC6480C864809845F022EB9F31
:10022000F5F0EA9E42F0E99D42F0E89C45F022E8B4
:10023000600FECC313FCED13FDEE13FEEF13FFD8BC
:10024000F122E86010ECA2E713FCED13FDEE13FEC3
:10025000EF13FFD8F022ECF0A3EDF0A3EEF0A3EF44
:10026000F022A8828583F0D083D082120279120214
:1002700079120279120279E473E493A3C583C5F07D
:10028000C583C8C582C8F0A3C583C5F0C583C8C5EA
:1002900082C822A42582F582E5F03583F58322D039
:1002A00083D082F8E4937012740193700DA3A3932A
:1002B000F8740193F5828883E473740293B5F006B1
:1002C0007403936860E9A3A3A3A380D88A83898277
:1002D000E473EC8EF0A4CCC5F0CCCDF8EFA4CEC581
:1002E000F02DFDE43CFCE8A42EC8C5F03DFDE43C47
:1002F000FCEFA4FFE5F028FEE43DFDE43CFC2275A4
:10030000630190007DE0FEA3E0FFEE60030204D6EF
:10031000EF248A601B24F6606C24FB70030203F94F
:10032000248560030204D690007DE4F0A37476F087
:100330002004037F0022C20490003DE0F51EA3E0EC
:10034000F51FAE1CAF1DE4FCFDC006C007AE1EAF1E
:100350001FAB07AA06D007D006C3EF9BFBEE9AFAA5
:10036000ED9400F9EC9400F8900081E0FEA3E0FF2A
:10037000E41200DD900079120256E4F56390007DEE
:10038000F0A37480F0E56370037F0122900079E0B0
:10039000F8A3E0F9A3E0FAA3E0FBC000C001C002AB
:1003A000C003AE31AF32E4FCFDC006C007AE1EAFE5
:1003B0001FAB07AA06D007D006C3EF9BFBEE9AFA45
:1003C000ED9400F9EC9400F890007FE0FEA3E0FFCC
:1003D000E41200DDD003D002D001D000EB2FFFEA01
:1003E0003EFEE93DFDE83CFC900079120256E4F542
:1003F0006390007DF0A37485F0E56370037F0122B4
:10040000851E1C851F1D900079E0FCA3E0FDA3E084
:10041000FEA3E0FF78081202429000791202569083
:100420000079E0FCEC335060900079E0FCA3E0FD43
:10043000A3E0FEA3E0FF1201FA900079120256E455
:10044000FF7E08FDFC900079E0F8A3E0F9A3E0FA54
:10045000A3E0FBD312021E4008751A08751B00802A
:100460000A90007BE0F51AA3E0F51BC3E53E951B5F
:10047000E53D951A5003E48054C3E53E951BF51BFA
:10048000E53D951AF51A8049E4FF7E08FDFC9000D1
:1004900079E0F8A3E0F9A3E0FAA3E0FBD312021E8F
:1004A0004008751A08751B00800A90007BE0F51A59
:1004B000A3E0F51BE53E251BF51BE53D351AF51AB6
:1004C000C3E51B953EE51A953D500674FFF51AF5F8
:1004D0001BD216020327E4F56390007DF0A3F07FA2
:1004E0000322121D6AE4F543F542F541F540F5306B
:1004F000F52FF52EF52DF59D900075120262000086
:100500000000759F687F01121B57753D7F753EFF88
:10051000AF3EAE3D1211F6759C02E4F538C20112F1
:1005200017CAA20C92AF7564C81564E564D3940031
:1005300040077F03121B5780F0E4F538F56312176C
:10054000CAA20C92AFE563C39403501BAF6305636B
:10055000EF25E02472F582E4341DF583E493F5651C
:10056000740193F566802DAE65AF66E4FCFD9000E6
:1005700071E0F8A3E0F9A3E0FAA3E0FB1200DD903C
:100580000075E0F8A3E0F9A3E0FAA3E0FB1201682C
:100590008E658F66900075E0FCA3E0FDA3E0FEA3EE
:1005A000E0FF900071120256900075E0F8A3E0F9A8
:1005B000A3E0FAA3E0FBE4FCFDEB2566FFEA35656A
:1005C000FEED39FDEC38FC900075120256C3E4953F
:1005D00066FFE49565F5938F928593958592945384
:1005E000917F759104E4F56453BFCFE564C394042F
:1005F0005024E59130E70553917F0564E5BF30E471
:10060000EA53BFEFA2AF920CC2AF85F94585FA4419
:10061000A20C92AF80D55391FBC3E566946DE5655E
:100620009402400302053EE545AE447806C333CE4E
:1006300033CED8F9F5458E44E42545F5457480352B
:1006400044F544AE44AF45E4FCFDFB7A80F9F8D3B1
:10065000120208500675447F7545FF85443D854567
:100660003E759FFFE4F59CE59054034403F59043E9
:10067000D5FC2253F1F0759F307F01121B5753BFF9
:10068000CFE4F593F592F595F594759104F52FF572
:1006900030D20DE59120E76BE5BF543060F5300DA9
:1006A0000BA2AF920CC2AF5391FB800FA2AF920C82
:1006B000C2AF5391FB85952F859430E4F595F59461
:1006C000759104A20C92AFE5BF30E41520070875C0
:1006D00037017538028006753704753803C201800A
:1006E00018E5BF30E5132007087537047538058015
:1006F00006753701E4F538D20153BFCF300D04C27F
:100700000D8090E59130E703D20622C206AE2FAFEE
:10071000307C007D021202D28F668E658D648C6300
:1007200012194CE47F02FEFDFCAB66AA65A964A821
:10073000631200DD8F368E358D348C33A2AF920C70
:10074000C2AF5391FBAF94AE957C007D0C1202D2E8
:10075000A804A905AA06C3E5669FF566E5659AF5AE
:1007600065E56499F564E56398F563E4F574C3950C
:1007700066F577E49565F576C28C85778A85768C03
:10078000D28CC28DA20C92AF12173B7575039000EC
:1007900045E0FFC31375F006A4900056F0F53F53F3
:1007A000BFCF539DCF43B802D2A943E620E4FCFD5E
:1007B000FEAB36AA35A934A8331200DDA804A9057A
:1007C000AA06AB077F407EAE7DEB7C0212016890EB
:1007D000003DEEF0A3EFF0C208C209E4F53CF53BA2
:1007E000F53AF53990004912026200000000C20A91
:1007F000AF3EAE3D1211F6121C7D22E4F512F51348
:10080000121BA4920F78A4E6640A7036FF12005EF1
:100810007512008F1378A4764208764C0876440847
:100820007643087652087645087646087620750E97
:10083000ACAF13AE12121C24AF0E050EA807760A39
:10084000C32278A4E66452701808E6B4531308E68D
:10085000B4540E750EA4AA18A9191202CCD211C351
:1008600022E50BB40205E4F510C322E50BB4031234
:10087000751001750EA4AF0E050EA807E4F6F50D70
:10088000C32278A4E6643D7072F512F513F5637522
:1008900011A8E511C3950E50250563A811E624D0D3
:1008A000FB7409C39B4017AE12AF137C007D0A1284
:1008B0000076EF2BF513EC3EF512051180D4200FD6
:1008C000347430D3950C4015740395635002801432
:1008D000AD13D20CAF0C12180F920F80187405C311
:1008E00095635004750EA422D20CAD13AC12AF0C5C
:1008F00012151C920F750EA4A20F2278A4E6643F75
:10090000704D750EA4200F39D20F7430D3950C4062
:10091000157409D3950C4029AF0C12005E751200B6
:100920008F13AE1280167430D3950C501474489502
:100930000C400EAF0C121BE98E128F13121C24C236
:100940000F200F08AF0E050EA807760AA20F227817
:10095000A4E664237022750EA478A8E624D0F513CB
:10096000E434FFF512200F0D451324FF920BAF0C5A
:100970001214A9920FA20F22750EA4D322C0E0C0B8
:10098000F0C083C082C0D075D000C000C001C002DA
:10099000C003C004C005C006C00712194CC3E5431C
:1009A0009530F528E542952FF527E541952EF5265A
:1009B000E540952DF525E5362528FFE5353527FE5B
:1009C000E5343526FDE5333525FC780212022FC0CB
:1009D00004C005C006C007AF36AE35AD34AC3378C1
:1009E0000112022FD003D002D001D000EF2BF53638
:1009F000EE3AF535ED39F534EC38F533E53C25368E
:100A0000F53CE53B3535F53BE53A3534F53AE53926
:100A10003533F539D53F22AF3CAE3BAD3AAC3990DA
:100A20000049120256753C00753B00753A00753955
:100A300000900056E0F53FD208AF36AE35AD34AC8D
:100A400033780112022F8F288E278D268C25E47F84
:100A5000697E02FDFCAB28AA27A926A825D312028D
:100A60001E401AE5289465F528E5279402F527E548
:100A7000269400F526E5259400F525800C752804BC
:100A80007527007526007525007574008527768505
:100A900028775388CF757503C3E49528F528E49526
:100AA00027F52785288A85278CD28C75AB0053BF04
:100AB000CF12173B53F3DF43B802D007D006D0055F
:100AC000D004D003D002D001D000D0D0D082D083C7
:100AD000D0F0D0E032E57820E003020BF7900083FD
:100AE000E0FEA3E0FF900071EEF0A3EFF078B9E62E
:100AF0007047900039EEF0A3EFF0900039E0FEA3CC
:100B0000E0FF900030E0FCA3E0FD2FFFEC3EFEEFA5
:100B10007802CEC313CE13D8F9FBAA06ECC313FE9A
:100B2000ED132BFFEE3AFE900039F0A3EFF09000AA
:100B300030EEF0A3EFF0020BF7900071E0FEA3E0BF
:100B4000FF900039E0FCA3E0FDD39FEC9E4009E458
:100B5000900071F0A3F0800DC3900072E09DF090C2
:100B60000071E09CF0900035E0F8A3E0F9A3E0FA12
:100B7000A3E0FB900071E0FEA3E0FFE4FCFDEB2F9F
:100B8000FFEA3EFEED39FDEC38FC900035120256CE
:100B900090003CE014F0705F900035E0FCA3E0FDB5
:100BA000A3E0FEA3E0FF780412022F900071EEF0A4
:100BB000A3EFF0900071E0FEA3E07806CEC313CE61
:100BC00013D8F990004FF090003512026200000037
:100BD0000090003C7410F0900071E0FEA3E0FF7CF8
:100BE000427DF71202D2781012022FEE543FFE908F
:100BF0000052EEF0A3EFF0E57830E12B900085E0B5
:100C0000FFA3E0900071CFF0A3EFF0900071E0FE41
:100C1000A3E0FF7C307DEB1202D2781012022F90FD
:100C20000046EEF0A3EFF02230061020030DD203B1
:100C3000121CDA900042EEF0A3EFF0300623121CF3
:100C4000DA900042E0FCA3E0FDC3EF9DFFEE9CFEC6
:100C5000D3EF9488EE94135003020D74C203C206BE
:100C600022E57820E003020D6A900044E0FF602353
:100C7000900048E0FE601C78B9E6B4021390004F83
:100C8000E0C39E400B0524E5249F4007D202800369
:100C9000E4F52490003BE014F06003020D6A90003C
:100CA00050E0FEA3E0FFA3E0FCA3E0FDD39FEC9E99
:100CB0005003020D4690003EE0953290003DE095D5
:100CC000314003020D46C3ED9FF564EC9EF5639041
:100CD000004DE0FEA3E0FF7C0C7DCC1202D2781028
:100CE00012022F8E658F6690003EE02532FF900045
:100CF0003DE03531C313FEEF132566F566EE35652D
:100D0000F565900054E0FEA3E0FFC3E5669FF5663D
:100D1000E5659EF56590004DE0FEA3E0FF7C007D5B
:100D2000201202D2A804A905AA06AB07AE63AF64DD
:100D3000E4FCFD1200DD781012022FC3E5669FE58A
:100D4000659E5002D20290003B7464F090003DE03A
:100D5000FFA3E0900054CFF0A3EFF0900052E0FF2B
:100D6000A3E0900050CFF0A3EFF03002071218502C
:100D7000D206C20222756201900057E0FEA3E08E07
:100D8000F012029F0D9C00000DA601A90E2B01E69A
:100D90000E4A01EB0E7501F500000EA0900057748D
:100DA00001F0A374A9F01216414003D38001C3409F
:100DB000037F0022E510B4010E750EA4E50B64025A
:100DC00070561207FB8051E510704D1207FB40185A
:100DD000E50B64036042AF0E050EA807764FAF0E19
:100DE000050EA807764B8028AF0E050EA80776459E
:100DF000AF0E050EA8077652AF0E050EA807765265
:100E0000AF0E050EA807764FAF0E050EA807765257
:100E1000AF0E050EA807760AE50B6402604A75114D
:100E2000A49000577401F0A374E6F0A2104003D31D
:100E30008001C340037F0022D210E511650E6026B9
:100E40009000577401F0A374EBF0121CB77401C347
:100E50009F50028001C340037F0022A811E6FF12C9
:100E60001A82051180D4C21030112C9000577401E1
:100E7000F0A374F5F0121CB7BF1003D38001C34078
:100E8000037F0022E4F50C74FED3950C4004050C9E
:100E900080F575EF1080FE121C54750B08020D9C36
:100EA000E4F562900057F0A3F07F03221219841238
:100EB0001BC88F6278B9E66003020F3FE5627003DA
:100EC00030142320061EE5E85490600375BB1FE52F
:100ED000626002C213121B30A205E433FDC20C7F14
:100EE0000112180FC2141219F17F0512005E900052
:100EF00044EFF07F0412005E900048EFF07F3A125A
:100F00001BE990004DEEF0A3EFF07F0612005EEFBC
:100F100025E0FF121C697F44121BE990006DEEF082
:100F2000A3EFF07F46121BE990006FEEF0FCA3EFF9
:100F3000F0FD90006DE0FEA3E0FF121CC980137865
:100F4000B9E6B4020DE5627006E532453170031270
:100F50001850121CDA8F62E56B65626037E562300B
:100F6000E032F56B90003DE0FCA3E0FDC20C7F3069
:100F700012151CC20CAD3EAC3D7F3612151C7F0114
:100F800012005EEF24FF920BA20BE433FDC20C7F34
:100F90000112180F120FB5900052E0FCA3E0FDC241
:100FA0000C7F3212151C900046E0FCA3E0FDC20C41
:100FB0007F3402151C121CDAC3EF956DFFEE956CA1
:100FC000FED390008CE09F90008BE09E40030210C7
:100FD00094121CDA8E6C8F6D20130578B9E670348C
:100FE0007F3C121BE98E638F64E53265647004E513
:100FF000316563601FE56464014563700FD214C2FC
:101000000CAD32AC317F3C12151C800685633185F6
:101010006432D213900087E0F563A3E0F564C374F3
:10102000FF9564F564743F9563F56374FF2564F57B
:101030006474013563F563FEAF6490004DE0FCA37A
:10104000E0FD1202D2780E12022F900089EEF0A37A
:10105000EFF0256FFFE56E3EC313FEEF13FF900028
:1010600089EEF0A3EFF08E6EF56FC3952CEE952B05
:10107000500A900089E52BF0A3E52CF02013159081
:101080000089E0F531A3E0F532C20CAD32AC317F1E
:101090003C12151C22C0E0C083C082C0D075D000B5
:1010A000C000C006C007C28DE57564037061E574B9
:1010B000704E1217D343F10FB201E537300105909E
:1010C0001D7E8003901D7893F5AA757400E577AEB8
:1010D000767802CEC313CE13D8F9FFC3E49FF57719
:1010E000E49EF5765388CF85778A85768CD28C7589
:1010F000750043B80253F3DF53BFCF53BFCF8042D5
:1011000015745388CF85778A85768CD28C8033E5A9
:1011100075701F53BFCFF5AB75AB107574FF538857
:10112000CFF58AF58CD28C75750153B8FD43F32049
:101130008010E575B4010B1574E574C394F050028A
:10114000D202D007D006D000D0D0D082D083D0E059
:10115000327409D3950D403AAF0D1200265030AFCE
:101160000D12005E7512008F13851682758300E5DF
:101170000DF005167F69EFB51603751659E5138551
:101180001682758300F00516EFB51603751659051E
:101190000D227430D3950D4004750D30227448D360
:1011A000950D404EAF0D1219105042AF0D121BE9B4
:1011B0008E128F13851682758300E50DF005167D5E
:1011C00069EDB51603751659E5128516827583000B
:1011D000F00516EDB51603751659E51385168275DB
:1011E0008300F005167469B51603751659050D05CB
:1011F0000D22E4F50D22AB07AA06EB7806CEC31349
:10120000CE13D8F9FBAA0665477003E5466A6077F6
:101210008A468B47D3EB9499EA9401500C301730EF
:10122000C3EB9466EA94014027E4F9C374FF9BFB87
:1012300074039AFAEBAE027802CEC313CE13D8F938
:10124000FDAC06C3EB9DF568EA9CF567D217801EDE
:101250007902EBAE027802CEC313CE13D8F9240480
:10126000FDE43EFCEB2DF568EA3CF567C217A2AF42
:10127000920EC2AF894C85674A85684B8A488B4974
:10128000A20E92AF75F74222120003787FE4F6D8DF
:10129000FD7581B90212D2021AB0E493A3F8E49367
:1012A000A34003F68001F208DFF48029E493A3F859
:1012B0005407240CC8C333C4540F4420C8834004CB
:1012C000F456800146F6DFE4800B0102040810208A
:1012D0004080901C09E47E019360BCA3FF543F3022
:1012E000E509541FFEE493A360010ECF54C025E02E
:1012F00060A840B8E493A3FAE493A3F8E493A3C8E6
:10130000C582C8CAC583CAF0A3C8C582C8CAC58376
:10131000CADFE9DEE780BEC0E0C083C082C0D0750E
:10132000D000C007E5F754606460705375F782C25F
:10133000AF855396C2D8C2D98552FB8551FC8550E2
:10134000E9854FEA75F70230D91785F94E85FA4DD0
:101350007420254EF54EE4354DF54D854EE9854D0D
:10136000EA30D81785F94E85FA4D7420254EF54E92
:10137000E4354DF54D854EFB854DFCD2AFD20A309C
:10138000DF18C2AFC2DF056AE56A70020569D2AF35
:10139000FF900032E05F7002D204D007D0D0D0823C
:1013A000D083D0E032E510B401031211517562010F
:1013B000900069E0FEA3E08EF012029F13CC0000C3
:1013C00013D6022B13F4023000001420900069742D
:1013D00002F0A3742BF0E516650F60033010037F55
:1013E0000022D210E516650F60329000697402F099
:1013F000A37430F0121CB77401C39F50028001C364
:1014000040037F0022850F82758300E0FF121A825D
:10141000050F7469B50FCD750F5980C8C21080AC27
:10142000E4F562900069F0A3F07F0322900020743D
:1014300001F0E4A3F0A3F0A37411F0A3743CF0A3B3
:101440007405F0A37403F0A314F0E4A3F09000007B
:10145000F0A3F0900002F0A3F0900004F0A3F0904D
:101460000006F0A3F0900008F0A304F090000A74C6
:1014700015F0A37460F0E490000CF0A3F090000E5F
:10148000F0A3F0900010F0A37480F0900012E4F04C
:10149000A37480F09000147432F0A374C8F090002C
:1014A000167401F0A37490F0228F64121C3E500158
:1014B0002274017E00A864088005C333CE33CED8E1
:1014C000F9FF7430D395644018EF300B07425DEE9E
:1014D000425C8046F4FFEEF4FEEF525DEE525C801B
:1014E000397448D395644032E56424D0C313F5645D
:1014F00054F8131313541FFFE5645407FE7401A836
:1015000006088002C333D8FCFE745E2FF8E6300B69
:10151000044EF68005FFEEF45FF6C3228C658D66FF
:101520007448D39F500122EF24D0C313FF25E02439
:1015300000F582E43400AD82F5678D68EF54F8134E
:101540001313541FFEEF5407FF7401A8070880020D
:10155000C333D8FCFF300C0AEE901D9E935F7002DF
:10156000D322A2AF920DC2AF856882856783E565FD
:10157000F0A3E566F0A20D92AF74582EF8E64FF690
:10158000C32275BF8F53BFCF53F1F0121CDA8F63A4
:10159000C200C20C121CDAC3EF9563FE200C0EE5EC
:1015A000BF30E5098F63D20C53BFCF8008300C05E4
:1015B000E5BF20E408EEC3940A40D98020759F213E
:1015C000E4F563D563FDE5BFC330E601D3920DA218
:1015D0000D300701B34004D2008002C20075BF8005
:1015E00043F10F228F678E668D658C64E4F568E4A5
:1015F0007B0AFAF9F8AF67AE66AD65AC64120168B4
:10160000EB2430FF749A2568F8A607AF67AE66AD85
:1016100065AC64E47B0AFAF9F81201688F678E669C
:101620008D658C64E4FFFEFDFCAB67AA66A965A826
:1016300064C312021E60070568E568B40AB1AF68AA
:10164000227F0C121B07EF7051A80EA60C74A66522
:101650000E702C78A4E6FFB42B0F08E6B42B0A0812
:10166000E6B42B05750B02C322EF645E701978A5F2
:10167000E6645E701208E6B45E0D750B03C322A823
:101680000EE6B40A02C322050E74B8B50E0CAA18F1
:10169000A9191202CC75EF1080FED322C0E0C0D091
:1016A00075D000C000C007309821C298C3E570957E
:1016B00072FFEF540F6401C37001D3400EA872A6ED
:1016C000990572748AB5720375727A30991BC29942
:1016D000C215E57165736011D215A871E6F599051B
:1016E00071749AB5710375718AD007D000D0D0D0CB
:1016F000E0327597A5E4F565F564F563F562E47F7E
:10170000CCFEFDFCAB65AA64A963A862C312021EED
:10171000501800E5652401F565E43564F564E435A9
:1017200063F563E43562F56280D4A2AF920BC2AF79
:101730007597DE7597ADA20B92AF22E538901D9696
:101740009390003FF0A201E433901D8475F00612DF
:101750000293E475F006A42583F583E5822538F528
:1017600082E43583F583E493900034F030010790F0
:10177000003374C7F022E538901D909364CF900039
:1017800033F022300843C208A2AF920CC2AF9000DF
:1017900049E0FCA3E0FDA3E0FEA3E0FF900071128E
:1017A0000256A20C92AF900071E0F8A3E0F9A3E01A
:1017B000FAA3E0FB7FC07E0A7DC37C08120168901B
:1017C000003DEEF0A3EFF0D20922A2AF920CC2AF1F
:1017D00012173B90003FE0FFE5905403FEEF4EF000
:1017E000E04403F590900033E0F5D4A3E0F5D5850F
:1017F000383720070D0538E538D394054010E4F557
:1018000038221538E538D39405400375380522ACE5
:10181000077409D39C50012274017E00A80408803B
:1018200005C333CE33CED8F9FF300C10901D9CE4A5
:10183000935EFA7401935F4A7002D32274202CF5F0
:1018400082E43400F583EDF0EF4257EE4256C322B6
:10185000C2A953E6DF78B9E664027034A2AF920CF5
:10186000C2AFE59054034403F59043D5FCA20C921B
:10187000AF53917B75AA30E478B9F690003DF0A3A0
:10188000F0D20985443D85453EAF3EAE3D1211F68E
:101890002290008BE4F0A37407F07F0512005E90A5
:1018A0000044EFF07F0412005E900048EFF07F3AB2
:1018B000121BE990004DEEF0A3EFF0C213C214E446
:1018C000F531F532900040F0A3F0900089F0A3F0DC
:1018D0002230ED3B78B8E6FF25E02483F582E4343E
:1018E00000F583E5BEF0A3E5BDF0C2ED7401A807E5
:1018F000088002C333D8FC427878B806E6C3940364
:101900004002E4F678B8E6901DA293F5BBD2EC2233
:10191000EF24D0C313FF54F8131313541FFEEF54D6
:1019200007FF7401A807088002C333D8FCFF745E68
:101930002EF8E65F601474582EF8E65F600C745859
:101940002EF8E6FEEFF45EF6D322C322AF43AE429A
:10195000AD41AC408F308E2F8D2E8C2DC2AF85F9CE
:101960004385FA42A2DFE433F5238554408555418F
:10197000D2AFE523600DE54220E7080541E541705F
:1019800002054022120C28120AD578B9E6FB701D18
:1019900090003C7410F090003512026200000000CC
:1019A000E490004FF0900052F0A3F0800AEBB402F4
:1019B00006121783121D415378FC227430D39F50B6
:1019C0000B7439C39F4005EF9430FF227461D39F9D
:1019D000500B7466C39F4005EF24A9FF227441D3C6
:1019E0009F500B7446C39F4005EF24C9FF227FFF21
:1019F0002230120720A121C212801DA2A14003D3D0
:101A00008001C34013201210B205A205E433FDC2C9
:101A10000C7F0212180FD2127F0212005EEF24FF19
:101A20009205221216F2121D05121D0F12000A1243
:101A30001D4B121D23121D2D12006E121C91121C23
:101A4000A412000E121D37121CE9121D19121D6678
:101A5000021D5220910790008E7401F02290008E9A
:101A6000E0601E121CDA90008EE0B401067402F0F1
:101A70008F7922C3EF9579C394084005E490008ED6
:101A8000F022AE73EEFDAE71EEC39DFDED540F641A
:101A90000170037F1422A873A607C2AC0573749A61
:101AA000B5730375738AD2AC201502D2997F0022D8
:101AB000121A237508FF75091D750A6E7517FF75D3
:101AC000180075191E121B7E121ADC1218911218BA
:101AD000D1121A53120EAC121D6080F2E4F5F9F522
:101AE000FA121D59D2DED2CA900032740FF0C20031
:101AF00075443F7545FFC202C207C205E478B9F6D6
:101B000090003DF0A3F022AE72EEFDAE70EEC39DEC
:101B1000FDED540F70037F1522A870E6A807F6C2EA
:101B2000AC0570748AB5700375707AD2AC7F0022F0
:101B300078B9E6702120061EA205920712158220B0
:101B400000031204E212067390003B74FFF0C2031C
:101B5000C20278B97602225391FB7593F875920709
:101B6000859395859294759104EFD39400400BE58D
:101B70009130E7FB53917F1F80EF5391FB22C211FD
:101B8000E4F510750B08121C54850E11750F59855C
:101B90000F16C210E4900057F0A3F0900069F0A374
:101BA000F002142C78A5E6FF1219BBEFF46017EFD2
:101BB000C454F0F50C08E6FF1219BBEFF46007EF10
:101BC000250CF50CC322D322121A5390008EE0FF8D
:101BD000B4010B90008DE07005EFF07F01229000C2
:101BE0008EE090008DF07F0022EF24D0C31325E01B
:101BF0002400F582E43400F583A2AF920CC2AFE07A
:101C0000FEA3E0FFA20C92AF2241008E0041008DA6
:101C10000001B900C1044200300000C19202460038
:101C200000C11700E4FCFD1215E4EFF4600F749A94
:101C30002FF8E6AD0E050EA805F61F80ED227409FB
:101C4000D39F5006742FC39F50067448D39F5002F1
:101C5000D322C322750EA474B8650E6008A80EE4E2
:101C6000F6050E80F2750EA422900045EFF0FD7C83
:101C7000007E017FC01200888E2B8F2C2290003DA9
:101C8000E0F51CA3E0F51DC216E490007DF0A3F082
:101C900022AF885388AF758D96EF5440FEEF5410F5
:101CA0004E428822E5C8540453C8FB75CBFF75CA61
:101CB0003443C80442C822E57165736009C3E57105
:101CC0009573540FFF227F1022900081EEF0A3EF56
:101CD000F090007FECF0A3EDF022A2AF920EC2AF25
:101CE000AF55AE54A20E92AF22C2DE75D908759ED2
:101CF0000175FA04D2DE22853D1A853E1B1202FFD1
:101D0000AE1AAF1B2275A41175F13F75D4CF2275A1
:101D1000A5FC75F2FE75D5FF2253F77F75DA03E453
:101D2000F5FC2275BB0853E8F843E8C22253ABFC2C
:101D300043AB3043BF8022758E08758920438840AD
:101D400022121CF78E3D8F3E0211F675E34075E1BD
:101D5000012275E6D875A89A2243DA0243DB0222F3
:101D6000120D750213A543981022759602227F006A
:101D70002232C35078B65D373230313230312303EE
:101D800013230313F77F7FDFDFF7EFEFFBFBBFBF0B
:101D90000401020401021890842460480074600F5A
:051DA000000006070829
:00000001FF
