:020000040000FA
:1000000002064BC209753A801207237F987E3AEFA9
:100010001F70011EEF4E70F730091EE5DA20E6056D
:1000200043DA4080E6153AE53A7D00FCE4FF12072A
:1000300074E5FC70D6C20980D2E53AB4FF0753DA02
:10004000BFD20980C6053AE53A7D00FCE4FF1207FD
:100050007480B8020586E4F5A9222202082F75BB38
:100060000775BCF953E8F843E8C222020830E535C9
:100070002429F8E605352278263007027829E47528
:10008000F0011205500204F82000EB7F2ED2008010
:1000900018EF540F2490D43440D4FF30040BEF24D5
:1000A000BFB41A0050032461FFE53660021536051F
:1000B00039E5397002053830070D7826E475F0010E
:1000C000120550EF02053E02074D7403D20780036C
:1000D000E4C207F5358B268A278928E4F536F538FA
:1000E000F539E53660077F201200A980F57537FFE6
:1000F000C201C200C202C203C205C206C208120087
:1001000077FF700D3007057F001200BAAF39AE38A7
:1001100022B4255FC2D5C204120077FF24D0B40AEE
:1001200000501A75F00A783630D50508B6FF01067A
:10013000C6A426F620D5047002D20380D924CFB4F9
:100140001A00EF5004C2E5D2040202BAD20180C6FE
:10015000D20080C0D20280BCD2D580BAD20580B491
:100160007F201200A92002077401B5360040F11269
:10017000006EFF1200A90200E2D208D2068095129A
:10018000006EFB12006EFA12006EF94A4B7006798F
:100190008B7A037BFF20022EE536602A7E008E825A
:1001A00075830012051160060EEE653770F0C2D53A
:1001B000EBC0E0EAC0E0E9C0E0EE120301D0E0F9F4
:1001C000D0E0FAD0E0FB1204F8FF60AAEBC0E0EA4E
:1001D000C0E0E9C0E01200A9D0E02401F9D0E03489
:1001E00000FAD0E0FBE5370460DCD537D980877BA7
:1001F000FF7A0279FDD202809C791080027908C2D0
:1002000006C2088008D2D5790A8004790AC2D5E5E9
:1002100037047002F537E4FAFDFEFF12006EFC7B36
:100220000820011312006EFD7B1030000A12006ED0
:10023000FE12006EFF7B20EC3382D592D55013C3A3
:10024000E43000069FFFE49EFEE42001039DFDE4F0
:100250009CFCE4CBF8C201EC700CCFCECDCCE824F2
:10026000F8F870F38017C3EF33FFEE33FEED33FD84
:10027000EC33FCEB33FB994002FB0FD8E9EB300188
:1002800005F8D0E0C448B201C0E00AEC4D4E4F780A
:10029000207B0070C2EAB5370040BCC0E012030307
:1002A000D0F0D0E0200104C4C0E0C4B201C0F0121C
:1002B0000092D0F0D5F0EB0200E2120560017F530E
:1002C00001F95801504C014C4201FD4F0205440216
:1002D0000549016543020B5501EF4601EF4501EF6A
:1002E0004703AB5001542D01582E017B2B015C2399
:1002F00001792003942A011448000001733F3F3F15
:1003000000790AA2D5200314300509B910020404AB
:10031000B9080104A2D52006025001042002689207
:1003200002B536005034C0E07F203003197F30A280
:100330000272067205500F12035AC202C206C205AB
:10034000C2087F30800F300503E9C0E01200A930F9
:100350000503D0E0F9D0E0B536CC3005177F30B9D1
:10036000100C1200A97F583004077F788003B90869
:10037000031200A93002057F2D0200A97F2020086A
:10038000F87F2B2006F322920280CF286E756C6CCA
:100390002900D20112006E3001F8C201783630D542
:1003A0000108F60201142D5043495812006E24032F
:1003B000B405004001E49003A69312009A743A1227
:1003C000009AD2037536040201F9E88FF0A4CC8BB1
:1003D000F0A42CFCE98EF0A42CFC8AF0EDA42CFCFB
:1003E000EA8EF0A4CDA8F08BF0A42DCC3825F0FD3A
:1003F000E98FF0A42CCD35F0FCEB8EF0A4FEA9F033
:10040000EB8FF0A4CFC5F02ECD39FEE43CFCEAA47E
:100410002DCE35F0FDE43CFC2275F008758200EF2E
:100420002FFFEE33FECD33CDCC33CCC58233C58226
:100430009BED9AEC99E58298400CF582EE9BFEEDDF
:100440009AFDEC99FC0FD5F0D6E4CEFBE4CDFAE4AE
:10045000CCF9A88222B800C1B90059BA002DEC8BA2
:10046000F084CFCECDFCE5F0CBF97818EF2FFFEE7E
:1004700033FEED33FDEC33FCEB33FB10D703994037
:1004800004EB99FB0FD8E5E4F9FA227818EF2FFF77
:10049000EE33FEED33FDEC33FCC933C910D7059BB9
:1004A000E99A4007EC9BFCE99AF90FD8E0E4C9FA15
:1004B000E4CCFB2275F010EF2FFFEE33FEED33FDA1
:1004C000CC33CCC833C810D7079BEC9AE899400AC4
:1004D000ED9BFDEC9AFCE899F80FD5F0DAE4CDFB42
:1004E000E4CCFAE4C8F922EB9FF5F0EA9E42F0E989
:1004F0009D42F0E89C45F022BB010689828A83E098
:10050000225002E722BBFE02E32289828A83E4931F
:1005100022BB010CE58229F582E5833AF583E022CE
:100520005006E92582F8E622BBFE06E92582F8E2BC
:1005300022E58229F582E5833AF583E49322BB0123
:100540000689828A83F0225002F722BBFE01F32241
:10055000FAE6FB0808E6F925F0F618E6CA3AF622AC
:10056000D083D082F8E4937012740193700DA3A32A
:1005700093F8740193F5828883E47374029368603E
:10058000EFA3A3A380DFC0E0C0F0C083C082C0D0CF
:1005900075D000C000C001C002C003C004C005C0C7
:1005A00006C007752500752400752300752200C25A
:1005B000EDAFBDAEBEE4FCFDE5122FF512E5113E38
:1005C000F511ED3510F510EC350FF50FE514151498
:1005D00070021513E51445137056751308F514FBD6
:1005E0007A08F9F8AF12AE11AD10AC0F1204558FA6
:1005F000258E248D238C2275120075110075100034
:10060000750F00E47FE47E0CFDFCAB25AA24A92332
:10061000A8221203CAE47BFF7A03F9F81204557B7F
:10062000FF7A0779928F2C8E2B8D2A8C291200D07D
:10063000D007D006D005D004D003D002D001D0001E
:10064000D0D0D082D083D0F0D0E03212005A787F60
:10065000E4F6D8FD75813E020695020003E493A3FB
:10066000F8E493A34003F68001F208DFF48029E464
:1006700093A3F85407240CC8C333C4540F4420C8B0
:10068000834004F456800146F6DFE4800B01020447
:1006900008102040809007CFE47E019360BCA3FF48
:1006A000543F30E509541FFEE493A360010ECF547C
:1006B000C025E060A840B8E493A3FAE493A3F8E46B
:1006C00093A3C8C582C8CAC583CAF0A3C8C582C8D7
:1006D000CAC583CADFE9DEE780BE7597A5E4F53EAB
:1006E000F53DF53CF53BE47FCCFEFDFCAB3EAA3D81
:1006F000A93CA83BC31204E7501800E53E2401F5CD
:100700003EE4353DF53DE4353CF53CE4353BF53B19
:1007100080D4A2AF920AC2AF7597DE7597ADA20AD8
:1007200092AF221206DA1207EE12081612081D12F4
:10073000005E1208021200561207A91207BC120826
:100740000C1207E01207F812082B020824EFB40A73
:1007500007740D120758740A309811A899B8130C31
:10076000C2983098FDA899C298B811F63099FDC288
:1007700099F59922AB07AF04EB14600C14600E24BA
:1007800002700E8DFB8FFC228DE98FEA228DEB8F9C
:10079000EC220A50302E3720766F6C746167653A10
:1007A00020256C64206D560A00AF885388AF758D84
:1007B00096EF5440FEEF54104E428822E5C8540490
:1007C00053C8FB75CBFF75CA3443C80442C8220422
:1007D0000F000000000213080002080000C10B0017
:1007E000C2DE75D908759E0175FA04D2DE2275A4A1
:1007F0001175F17F75D4CF2253F77F75DA03E4F5D5
:10080000FC2253ABFC43AB3043BF8022758E08758E
:1008100089204388402275A51075D5FF2275E340D5
:1008200075E1012275E65875A8802243981022329E
:010830003295
:00000001FF
