:020000040000FA
:10000000020136C2007508801200B77F987E3AEF71
:100010001F70011EEF4E70F730001EE5DA20E60576
:1000200043DA4080E61508E5087D00FCE4FF120095
:10003000E1E5FC70D6C20080D2E508B4FF0753DAD0
:10004000BFD20080C60508E5087D00FCE4FF120071
:10005000E180B802005AE4F5A9223202019475BB8E
:100060000775BCF953E8F843E8C222020195759779
:10007000A5E4F50CF50BF50AF509E47FCCFEFDFCD3
:10008000AB0CAA0BA90AA809C3120125501800E558
:100090000C2401F50CE4350BF50BE4350AF50AE404
:1000A0003509F50980D4A2AF9201C2AF7597DE750C
:1000B00097ADA20192AF2212006E12015312017B82
:1000C00012018212005E1201671200561200FF1226
:1000D000011212017112014512015D12019002011B
:1000E00089AB07AF04EB14600C14600E2402700E91
:1000F0008DFB8FFC228DE98FEA228DEB8FEC22AFF6
:10010000885388AF758D96EF5440FEEF54104E42E1
:100110008822E5C8540453C8FB75CBFF75CA344325
:10012000C80442C822EB9FF5F0EA9E42F0E99D42E6
:10013000F0E89C45F022120196787FE4F6D8FD7530
:100140008120020003C2DE75D908759E0175FA048C
:10015000D2DE2275A41175F17F75D4CF2253F77FBB
:1001600075DA03E4F5FC2253ABFC43AB3043BF80AC
:1001700022758E087589204388402275A51075D593
:10018000FF2275E34075E1012275E65875A88022CB
:0701900043981022323222D5
:00000001FF
