:020000040000FA
:100000000210747409D39F5006742FC39F50067456
:1000100048D39F5002D322C322223202007212160A
:100020003CC3220214881218447508FF75091B7519
:100030000A5D7517FF75180075191E1219731218CD
:10004000D112167D1216BD121874120D54121B53C4
:1000500080F23202001AE4F5A92232021103E5917E
:1000600054045391FB43910442912202005243985D
:1000700010223202005AEF8DF0A4A8F0CF8CF0A429
:1000800028CE8DF0A42EFE22BC000BBE0029EF8DE1
:10009000F084FFADF022E4CCF875F008EF2FFFEE0E
:1000A00033FEEC33FCEE9DEC984005FCEE9DFE0F1C
:1000B000D5F0E9E4CEFD22EDF8F5F0EE8420D21C77
:1000C000FEADF075F008EF2FFFED33FD40079850BF
:1000D00006D5F0F222C398FD0FD5F0EA22E88FF0A2
:1000E000A4CC8BF0A42CFCE98EF0A42CFC8AF0EDBF
:1000F000A42CFCEA8EF0A4CDA8F08BF0A42DCC3873
:1001000025F0FDE98FF0A42CCD35F0FCEB8EF0A4AA
:10011000FEA9F0EB8FF0A4CFC5F02ECD39FEE43C64
:10012000FCEAA42DCE35F0FDE43CFC2275F0087508
:100130008200EF2FFFEE33FECD33CDCC33CCC58222
:1001400033C5829BED9AEC99E58298400CF582EEDE
:100150009BFEED9AFDEC99FC0FD5F0D6E4CEFBE4C6
:10016000CDFAE4CCF9A88222B800C1B90059BA008E
:100170002DEC8BF084CFCECDFCE5F0CBF97818EFE9
:100180002FFFEE33FEED33FDEC33FCEB33FB10D7EA
:1001900003994004EB99FB0FD8E5E4F9FA227818AB
:1001A000EF2FFFEE33FEED33FDEC33FCC933C91006
:1001B000D7059BE99A4007EC9BFCE99AF90FD8E038
:1001C000E4C9FAE4CCFB2275F010EF2FFFEE33FE0A
:1001D000ED33FDCC33CCC833C810D7079BEC9AE87D
:1001E00099400AED9BFDEC9AFCE899F80FD5F0DAFE
:1001F000E4CDFBE4CCFAE4C8F922C3E49FFFE49E1B
:10020000FEE49DFDE49CFC22EB9FF5F0EA9E42F0AB
:10021000E99D42F0EC6480C864809845F022EB9F31
:10022000F5F0EA9E42F0E99D42F0E89C45F022E8B4
:10023000600FECC313FCED13FDEE13FEEF13FFD8BC
:10024000F122E86010ECA2E713FCED13FDEE13FEC3
:10025000EF13FFD8F022ECF0A3EDF0A3EEF0A3EF44
:10026000F022A8828583F0D083D082120279120214
:1002700079120279120279E473E493A3C583C5F07D
:10028000C583C8C582C8F0A3C583C5F0C583C8C5EA
:1002900082C822A42582F582E5F03583F58322D039
:1002A00083D082F8E4937012740193700DA3A3932A
:1002B000F8740193F5828883E473740293B5F006B1
:1002C0007403936860E9A3A3A3A380D88A83898277
:1002D000E473EC8EF0A4CCC5F0CCCDF8EFA4CEC581
:1002E000F02DFDE43CFCE8A42EC8C5F03DFDE43C47
:1002F000FCEFA4FFE5F028FEE43DFDE43CFC2275A4
:10030000580190007DE0FEA3E0FFEE60030204D6FA
:10031000EF248A601B24F6606C24FB70030203F94F
:10032000248560030204D690007DE4F0A37476F087
:100330002004037F0022C20490003DE0F51EA3E0EC
:10034000F51FAE1CAF1DE4FCFDC006C007AE1EAF1E
:100350001FAB07AA06D007D006C3EF9BFBEE9AFAA5
:10036000ED9400F9EC9400F8900081E0FEA3E0FF2A
:10037000E41200DD900079120256E4F55890007DF9
:10038000F0A37480F0E55870037F0122900079E0BB
:10039000F8A3E0F9A3E0FAA3E0FBC000C001C002AB
:1003A000C003AE2BAF2CE4FCFDC006C007AE1EAFF1
:1003B0001FAB07AA06D007D006C3EF9BFBEE9AFA45
:1003C000ED9400F9EC9400F890007FE0FEA3E0FFCC
:1003D000E41200DDD003D002D001D000EB2FFFEA01
:1003E0003EFEE93DFDE83CFC900079120256E4F542
:1003F0005890007DF0A37485F0E55870037F0122CA
:10040000851E1C851F1D900079E0FCA3E0FDA3E084
:10041000FEA3E0FF78081202429000791202569083
:100420000079E0FCEC335060900079E0FCA3E0FD43
:10043000A3E0FEA3E0FF1201FA900079120256E455
:10044000FF7E08FDFC900079E0F8A3E0F9A3E0FA54
:10045000A3E0FBD312021E4008751A08751B00802A
:100460000A90007BE0F51AA3E0F51BC3E538951B65
:10047000E537951A5003E48054C3E538951BF51B06
:10048000E537951AF51A8049E4FF7E08FDFC9000D7
:1004900079E0F8A3E0F9A3E0FAA3E0FBD312021E8F
:1004A0004008751A08751B00800A90007BE0F51A59
:1004B000A3E0F51BE538251BF51BE537351AF51AC2
:1004C000C3E51B9538E51A9537500674FFF51AF504
:1004D0001BD216020327E4F55890007DF0A3F07FAD
:1004E0000322121B59E4F53DF53CF53BF53AF52A9C
:1004F000F529F528F527F59D900075120262000098
:100500000000759F687F0112194C75377F7538FFA1
:10051000AF38AE37120FE2759C02E4F532C2011219
:1005200015B6A20C92AF7559C81559E559D3940068
:1005300040077F0312194C80F0E4F532F55812158C
:10054000B6A20C92AFE558C39403501BAF580558A0
:10055000EF25E02460F582E4341BF583E493F55A3B
:10056000740193F55B802DAE5AAF5BE4FCFD900007
:1005700071E0F8A3E0F9A3E0FAA3E0FB1200DD903C
:100580000075E0F8A3E0F9A3E0FAA3E0FB1201682C
:100590008E5A8F5B900075E0FCA3E0FDA3E0FEA304
:1005A000E0FF900071120256900075E0F8A3E0F9A8
:1005B000A3E0FAA3E0FBE4FCFDEB255BFFEA355A80
:1005C000FEED39FDEC38FC900075120256C3E4953F
:1005D0005BFFE4955AF5938F92859395859294539A
:1005E000917F759104E4F55953BFCFE559C3940445
:1005F0005024E59130E70553917F0559E5BF30E47C
:10060000EA53BFEFA2AF920CC2AF85F93F85FA3E25
:10061000A20C92AF80D55391FBC3E55B946DE55A74
:100620009402400302053EE53FAE3E7806C333CE5A
:1006300033CED8F9F53F8E3EE4253FF53F74803543
:100640003EF53EAE3EAF3FE4FCFDFB7A80F9F8D3C9
:100650001202085006753E7F753FFF853E37853F85
:1006600038759FFFE4F59CE59054034403F59043EF
:10067000D5FC2253F1F0759F307F0112194C53BF06
:10068000CFE4F593F592F595F594759104F529F578
:100690002AD20DE59120E76BE5BF543060F5300DAF
:1006A0000BA2AF920CC2AF5391FB800FA2AF920C82
:1006B000C2AF5391FB85952985942AE4F595F5946D
:1006C000759104A20C92AFE5BF30E41520070875C0
:1006D00031017532028006753104753203C2018022
:1006E00018E5BF30E5132007087531047532058021
:1006F00006753101E4F532D20153BFCF300D04C28B
:100700000D8090E59130E703D20622C206AE29AFF4
:100710002A7C007D021202D28F5B8E5A8D598C5832
:10072000121738E47F02FEFDFCAB5BAA5AA959A858
:10073000581200DD8F308E2F8D2E8C2DA2AF920C93
:10074000C2AF5391FBAF94AE957C007D0C1202D2E8
:10075000A804A905AA06C3E55B9FF55BE55A9AF5CF
:100760005AE55999F559E55898F558E4F56EC39549
:100770005BF571E4955AF570C28C85718A85708C31
:10078000D28CC28DA20C92AF121527756F03900008
:1007900045E0FFC31375F006A4900056F0F53953F9
:1007A000BFCF539DCF43B802D2A943E620E4FCFD5E
:1007B000FEAB30AA2FA92EA82D1200DDA804A90592
:1007C000AA06AB077F407EAE7DEB7C0212016890EB
:1007D000003DEEF0A3EFF0C208C209E4F536F535AE
:1007E000F534F53390004912026200000000C20A9D
:1007F000AF38AE37120FE2121A5C22E4F512F5138D
:10080000121999920F789EE6640A7036FF121AE464
:100810007512008F13789E764208764C087644084D
:100820007643087652087645087646087620750E97
:10083000A6AF13AE12121A19AF0E050EA807760A4C
:10084000C322789EE66452701808E6B4531308E693
:10085000B4540E750E9EAA18A9191202CCD211C357
:1008600022E50BB40205E4F510C322E50BB4031234
:10087000751001750E9EAF0E050EA807E4F6F50D76
:10088000C322789EE6643D7072F512F513F5587533
:1008900011A2E511C3950E50250558A811E624D0E4
:1008A000FB7409C39B4017AE12AF137C007D0A1284
:1008B0000076EF2BF513EC3EF512051180D4200FD6
:1008C000347430D3950C401574039558500280143D
:1008D000AD13D20CAF0C1215FB920F80187405C328
:1008E00095585004750E9E22D20CAD13AC12AF0C6D
:1008F000121308920F750E9EA20F22789EE6643F97
:10090000704D750E9E200F39D20F7430D3950C4068
:10091000157409D3950C4029AF0C121AE475120016
:100920008F13AE1280167430D3950C501474489502
:100930000C400EAF0C1219DE8E128F13121A19C250
:100940000F200F08AF0E050EA807760AA20F227817
:100950009EE664237022750E9E78A2E624D0F513DD
:10096000E434FFF512200F0D451324FF920BAF0C5A
:10097000121295920FA20F22750E9ED322E57220BD
:10098000E003020A9F900083E0FEA3E0FF90007165
:10099000EEF0A3EFF078B3E67047900039EEF0A3E5
:1009A000EFF0900039E0FEA3E0FF900030E0FCA300
:1009B000E0FD2FFFEC3EFEEF7802CEC313CE13D83E
:1009C000F9FBAA06ECC313FEED132BFFEE3AFE90E3
:1009D0000039F0A3EFF0900030EEF0A3EFF0020A40
:1009E0009F900071E0FEA3E0FF900039E0FCA3E0DF
:1009F000FDD39FEC9E4009E4900071F0A3F0800DC0
:100A0000C3900072E09DF0900071E09CF090003582
:100A1000E0F8A3E0F9A3E0FAA3E0FB900071E0FEA8
:100A2000A3E0FFE4FCFDEB2FFFEA3EFEED39FDEC19
:100A300038FC90003512025690003CE014F0705FD4
:100A4000900035E0FCA3E0FDA3E0FEA3E0FF780406
:100A500012022F900071EEF0A3EFF0900071E0FE13
:100A6000A3E07806CEC313CE13D8F990004FF090D0
:100A700000351202620000000090003C7410F090FB
:100A80000071E0FEA3E0FF7C427DF71202D27810F5
:100A900012022FEE543FFE900052EEF0A3EFF0E56D
:100AA0007230E12B900085E0FFA3E0900071CFF061
:100AB000A3EFF0900071E0FEA3E0FF7C307DEB122D
:100AC00002D2781012022F900046EEF0A3EFF0222F
:100AD00030061020030DD203121AB9900042EEF036
:100AE000A3EFF0300623121AB9900042E0FCA3E015
:100AF000FDC3EF9DFFEE9CFED3EF9488EE94135060
:100B000003020C1CC203C20622E57220E003020CA1
:100B100012900044E0FF6023900048E0FE601C78E3
:100B2000B3E6B4021390004FE0C39E400B0524E5EA
:100B3000249F4007D2028003E4F52490003BE01498
:100B4000F06003020C12900050E0FEA3E0FFA3E06F
:100B5000FCA3E0FDD39FEC9E5003020BEE90003E01
:100B6000E0952C90003DE0952B4003020BEEC3ED89
:100B70009FF559EC9EF55890004DE0FEA3E0FF7CF8
:100B80000C7DCC1202D2781012022F8E5A8F5B90FD
:100B9000003EE0252CFF90003DE0352BC313FEEF17
:100BA00013255BF55BEE355AF55A900054E0FEA331
:100BB000E0FFC3E55B9FF55BE55A9EF55A90004D5B
:100BC000E0FEA3E0FF7C007D201202D2A804A9056C
:100BD000AA06AB07AE58AF59E4FCFD1200DD781051
:100BE00012022FC3E55B9FE55A9E5002D20290008D
:100BF0003B7464F090003DE0FFA3E0900054CFF020
:100C0000A3EFF0900052E0FFA3E0900050CFF0A3DC
:100C1000EFF030020712163CD206C20222755701CD
:100C2000900057E0FEA3E08EF012029F0C440000FB
:100C30000C4E01A90CD301E60CF201EB0D1D01F5E0
:100C400000000D489000577401F0A374A9F012142D
:100C50002D4003D38001C340037F0022E510B4017F
:100C60000E750E9EE50B640270561207FB8051E56F
:100C700010704D1207FB4018E50B64036042AF0E85
:100C8000050EA807764FAF0E050EA807764B8028F5
:100C9000AF0E050EA8077645AF0E050EA8077652D3
:100CA000AF0E050EA8077652AF0E050EA807764FB9
:100CB000AF0E050EA8077652AF0E050EA807760AEE
:100CC000E50B6402604A75119E9000577401F0A311
:100CD00074E6F0A2104003D38001C340037F0022DA
:100CE000D210E511650E60269000577401F0A374D0
:100CF000EBF0121A967401C39F50028001C34003A7
:100D00007F0022A811E6FF1218A3051180D4C2109B
:100D100030112C9000577401F0A374F5F0121A965C
:100D2000BF1003D38001C340037F0022E4F50C749D
:100D3000FED3950C4004050C80F575EF1080FE1273
:100D40001A33750B08020C44E4F557900057F0A3D2
:100D5000F07F03221217701219BD8F5778B3E66027
:100D600003020DE7E557700330142320061EE5E863
:100D70005490600375BB1FE5576002C2131219251A
:100D8000A205E433FDC20C7F011215FBC214121838
:100D9000127F05121AE4900044EFF07F04121AE467
:100DA000900048EFF07F3A1219DE90004DEEF0A36C
:100DB000EFF07F06121AE4EF25E0FF121A487F4495
:100DC0001219DE90006DEEF0A3EFF07F461219DEEF
:100DD00090006FEEF0FCA3EFF0FD90006DE0FEA33D
:100DE000E0FF121AA8801378B3E6B4020DE557703D
:100DF00006E52C452B700312163C121AB98F57E5E5
:100E00006565576037E55730E032F56590003DE0A5
:100E1000FCA3E0FDC20C7F30121308C20CAD38AC4D
:100E2000377F361213087F01121AE4EF24FF920B6A
:100E3000A20BE433FDC20C7F011215FB120E5D9074
:100E40000052E0FCA3E0FDC20C7F321213089000B8
:100E500046E0FCA3E0FDC20C7F34021308121AB96D
:100E6000C3EF9567FFEE9566FED390008CE09F90F0
:100E7000008BE09E4003020F3C121AB98E668F670A
:100E800020130578B3E670347F3C1219DE8E588F3C
:100E900059E52C65597004E52B6558601FE55964C8
:100EA000014558700FD214C20CAD2CAC2B7F3C12F4
:100EB0001308800685582B85592CD213900087E0A3
:100EC000F558A3E0F559C374FF9559F559743F954A
:100ED00058F55874FF2559F55974013558F558FEE1
:100EE000AF5990004DE0FCA3E0FD1202D2780E1243
:100EF000022F900089EEF0A3EFF02569FFE5683E30
:100F0000C313FEEF13FF900089EEF0A3EFF08E689D
:100F1000F569C39526EE9525500A900089E525F0E0
:100F2000A3E526F0201315900089E0F52BA3E0F54A
:100F30002CC20CAD2CAC2B7F3C121308227409D3AD
:100F4000950D403AAF0D1217DD5030AF0D121AE477
:100F50007512008F13851682758300E50DF0051656
:100F60007F69EFB51603751659E5138516827583EB
:100F700000F00516EFB51603751659050D227430ED
:100F8000D3950D4004750D30227448D3950D404E15
:100F9000AF0D1216FC5042AF0D1219DE8E128F13D8
:100FA000851682758300E50DF005167D69EDB51691
:100FB00003751659E512851682758300F00516ED46
:100FC000B51603751659E513851682758300F0056D
:100FD000167469B51603751659050D050D22E4F54D
:100FE0000D22AB07AA06EB7806CEC313CE13D8F9B1
:100FF000FBAA06654D7003E54C6A60778A4C8B4D01
:10100000D3EB9499EA9401500C301730C3EB9466FB
:10101000EA94014027E4F9C374FF9BFB74039AFA36
:10102000EBAE027802CEC313CE13D8F9FDAC06C3E3
:10103000EB9DF55DEA9CF55CD217801E7902EBAE64
:10104000027802CEC313CE13D8F92404FDE43EFC8B
:10105000EB2DF55DEA3CF55CC217A2AF920EC2AF74
:101060008952855C50855D518A4E8B4FA20E92AF9E
:1010700075F74222121B37787FE4F6D8FD7581B3ED
:101080000210BE020026E493A3F8E493A34003F603
:101090008001F208DFF48029E493A3F85407240CBC
:1010A000C8C333C4540F4420C8834004F45680019D
:1010B00046F6DFE4800B01020408102040809019FE
:1010C000FEE47E019360BCA3FF543F30E509541F4A
:1010D000FEE493A360010ECF54C025E060A840B8A1
:1010E000E493A3FAE493A3F8E493A3C8C582C8CA1F
:1010F000C583CAF0A3C8C582C8CAC583CADFE9DEF2
:10110000E780BEC0E0C083C082C0D075D000C007F9
:10111000E5F754606460705375F782C2AF856496DA
:10112000C2D8C2D98563FB8562FC8561E98560EA26
:1011300075F70230D91785F95F85FA5E7420255F4F
:10114000F55FE4355EF55E855FE9855EEA30D817C8
:1011500085F95F85FA5E7420255FF55FE4355EF5FD
:101160005E855FFB855EFCD2AFD20A30DF18C2AF6E
:10117000C2DF0556E55670020555D2AFFF9000322A
:10118000E05F7002D204D007D0D0D082D083D0E00C
:1011900032E510B40103120F3D755701900069E06C
:1011A000FEA3E08EF012029F11B8000011C2022BC4
:1011B00011E002300000120C9000697402F0A37478
:1011C0002BF0E516650F60033010037F0022D2106C
:1011D000E516650F60329000697402F0A37430F078
:1011E000121A967401C39F50028001C340037F000E
:1011F00022850F82758300E0FF1218A3050F746922
:10120000B50FCD750F5980C8C21080ACE4F557906A
:101210000069F0A3F07F03229000207401F0E4A3A2
:10122000F0A3F0A37411F0A3743CF0A37405F0A331
:101230007403F0A314F0E4A3F0900000F0A3F09086
:101240000002F0A3F0900004F0A3F0900006F0A3D9
:10125000F0900008F0A304F090000A7415F0A37455
:1012600060F0E490000CF0A3F090000EF0A3F0907A
:101270000010F0A37480F0900012E4F0A37480F0EA
:101280009000147432F0A374C8F09000167401F04A
:10129000A37490F0228F5912000350012274017E32
:1012A00000A859088005C333CE33CED8F9FF743077
:1012B000D395594018EF300B074247EE424680461F
:1012C000F4FFEEF4FEEF5247EE524680397448D3F5
:1012D00095594032E55924D0C313F55954F81313E6
:1012E00013541FFFE5595407FE7401A80608800235
:1012F000C333D8FCFE74482FF8E6300B044EF6805A
:1013000005FFEEF45FF6C3228C5A8D5B7448D39FC1
:10131000500122EF24D0C313FF25E02400F582E41E
:101320003400AD82F55C8D5DEF54F8131313541F38
:10133000FEEF5407FF7401A807088002C333D8FCEE
:10134000FF300C0AEE901B8C935F7002D322A2AF89
:10135000920DC2AF855D82855C83E55AF0A3E55BA3
:10136000F0A20D92AF74422EF8E64FF6C32275BF7D
:101370008F53BFCF53F1F0121AB98F58C200C20C6D
:10138000121AB9C3EF9558FE200C0EE5BF30E509DF
:101390008F58D20C53BFCF8008300C05E5BF20E436
:1013A00008EEC3940A40D98020759F21E4F558D5F2
:1013B00058FDE5BFC330E601D3920DA20D30070101
:1013C000B34004D2008002C20075BF8043F10F22F7
:1013D0008F5C8E5B8D5A8C59E4F55DE47B0AFAF9DB
:1013E000F8AF5CAE5BAD5AAC59120168EB2430FF2C
:1013F0007494255DF8A607AF5CAE5BAD5AAC59E4BA
:101400007B0AFAF9F81201688F5C8E5B8D5A8C5951
:10141000E4FFFEFDFCAB5CAA5BA95AA859C312020B
:101420001E6007055DE55DB40AB1AF5D227F0C1259
:1014300018FCEF7051A80EA60C74A0650E702C78E5
:101440009EE6FFB42B0F08E6B42B0A08E6B42B0582
:10145000750B02C322EF645E7019789FE6645E70BC
:101460001208E6B45E0D750B03C322A80EE6B40A9B
:1014700002C322050E74B2B50E0CAA18A9191202E5
:10148000CC75EF1080FED322C0E0C0D075D000C074
:1014900000C007309821C298C3E56A956CFFEF54ED
:1014A0000F6401C37001D3400EA86CA699056C743B
:1014B00084B56C03756C7430991BC299C215E56BC9
:1014C000656D6011D215A86BE6F599056B7494B53E
:1014D0006B03756B84D007D000D0D0D0E032759705
:1014E000A5E4F55AF559F558F557E47FCCFEFDFC17
:1014F000AB5AAA59A958A857C312021E501800E5A2
:101500005A2401F55AE43559F559E43558F558E4AB
:101510003557F55780D4A2AF920BC2AF7597DE75E1
:1015200097ADA20B92AF22E532901B849390003FBF
:10153000F0A201E433901B7275F006120293E47579
:10154000F006A42583F583E5822532F582E4358310
:10155000F583E493900034F030010790003374C7B2
:10156000F022E532901B7E9364CF900033F022305E
:101570000843C208A2AF920CC2AF900049E0FCA39E
:10158000E0FDA3E0FEA3E0FF900071120256A20C62
:1015900092AF900071E0F8A3E0F9A3E0FAA3E0FBBA
:1015A0007FC07E0A7DC37C0812016890003DEEF08A
:1015B000A3EFF0D20922A2AF920CC2AF121527906E
:1015C000003FE0FFE5905403FEEF4EF0E04403F5EA
:1015D00090900033E0F5D4A3E0F5D58532312007B3
:1015E0000D0532E532D394054010E4F53222153270
:1015F000E532D39405400375320522AC077409D354
:101600009C50012274017E00A804088005C333CEDB
:1016100033CED8F9FF300C10901B8AE4935EFA7435
:1016200001935F4A7002D32274202CF582E43400C7
:10163000F583EDF0EF4241EE4240C322C2A953E6EA
:10164000DF78B3E664027034A2AF920CC2AFE590CB
:1016500054034403F59043D5FCA20C92AF53917B05
:1016600075AA30E478B3F690003DF0A3F0D2098576
:101670003E37853F38AF38AE37120FE22290008BED
:10168000E4F0A37407F07F05121AE4900044EFF031
:101690007F04121AE4900048EFF07F3A1219DE90AE
:1016A000004DEEF0A3EFF0C213C214E4F52BF52CBD
:1016B000900040F0A3F0900089F0A3F02230ED3BC1
:1016C00078B2E6FF25E02483F582E43400F583E573
:1016D000BEF0A3E5BDF0C2ED7401A807088002C307
:1016E00033D8FC427278B206E6C394034002E4F6B3
:1016F00078B2E6901B9093F5BBD2EC22EF24D0C3D6
:1017000013FF54F8131313541FFEEF5407FF740113
:10171000A807088002C333D8FCFF74482EF8E65FA0
:10172000601474422EF8E65F600C74422EF8E6FEF8
:10173000EFF45EF6D322C322AF3DAE3CAD3BAC3AF4
:101740008F2A8E298D288C27C2AF85F93D85FA3CDA
:10175000A2DFE433F52385533A85543BD2AFE5232A
:10176000600DE53C20E708053BE53B7002053A22A9
:10177000120AD012097D78B3E6FB701D90003C740C
:1017800010F090003512026200000000E490004F5B
:10179000F0900052F0A3F0800AEBB4020612156F2D
:1017A000121B2D5372FC227430D39F500B7439C31B
:1017B0009F4005EF9430FF227461D39F500B7466F5
:1017C000C39F4005EF24A9FF227441D39F500B749F
:1017D00046C39F4005EF24C9FF227FFF2274017E8C
:1017E00000A807088005C333CE33CED8F9FFE546FD
:1017F0005EFCE5475F4C6018E5405EFCE5415F4CF0
:10180000600EEFF4FFEEF4FEEF5241EE5240D322B1
:10181000C32230120720A121C212801DA2A14003C1
:10182000D38001C34013201210B205A205E433FD9A
:10183000C20C7F021215FBD2127F02121AE4EF24AF
:10184000FF9205221214DE121AF1121AFB1200196D
:10185000121B3E121B0F121B19120056121A701285
:101860001A8312005E121B23121AC8121B051200E3
:101870006E021B4520910790008E7401F0229000AB
:101880008EE0601E121AB990008EE0B40106740258
:10189000F08F7322C3EF9573C394084005E4900062
:1018A0008EF022AE6DEEFDAE6BEEC39DFDED540FDE
:1018B000640170037F1422A86DA607C2AC056D7485
:1018C00094B56D03756D84D2AC201502D2997F005A
:1018D00022E4F5F9F5FA121B4CD2DED2CA9000329E
:1018E000740FF0C200753E3F753FFFC202C207C2CF
:1018F00005E478B3F690003DF0A3F022AE6CEEFD67
:10190000AE6AEEC39DFDED540F70037F1522A86AE9
:10191000E6A807F6C2AC056A7484B56A03756A74F2
:10192000D2AC7F002278B3E6702120061EA2059279
:101930000712136E2000031204E212067390003B9C
:1019400074FFF0C203C20278B37602225391FB7592
:1019500093F8759207859395859294759104EFD3CA
:101960009400400BE59130E7FB53917F1F80EF53CC
:1019700091FB22C211E4F510750B08121A33850E83
:1019800011750F59850F16C210E4900057F0A3F09F
:10199000900069F0A3F0021218789FE6FF1217A7D3
:1019A000EFF46017EFC454F0F50C08E6FF1217A728
:1019B000EFF46007EF250CF50CC322D32212187444
:1019C00090008EE0FFB4010B90008DE07005EFF009
:1019D0007F012290008EE090008DF07F0022EF24A6
:1019E000D0C31325E02400F582E43400F583A2AFD0
:1019F000920CC2AFE0FEA3E0FFA20C92AF22410026
:101A00008E0041008D0001B300C10442003000008F
:101A1000C192024C0000C11700E4FCFD1213D0EF8C
:101A2000F4600F74942FF8E6AD0E050EA805F61FAE
:101A300080ED22750E9E74B2650E6008A80EE4F665
:101A4000050E80F2750E9E22900045EFF0FD7C00A1
:101A50007E017FC01200888E258F262290003DE0F7
:101A6000F51CA3E0F51DC216E490007DF0A3F02262
:101A7000AF885388AF758D96EF5440FEEF54104EEB
:101A8000428822E5C8540453C8FB75CBFF75CA349D
:101A900043C80442C822E56B656D6009C3E56B95D8
:101AA0006D540FFF227F1022900081EEF0A3EFF023
:101AB00090007FECF0A3EDF022A2AF920EC2AFAF88
:101AC00054AE53A20E92AF22C2DE75D908759E01A4
:101AD00075FA04D2DE2285371A85381B1202FFAE52
:101AE0001AAF1B2274202FF582E43400F583E0FF47
:101AF0002275A41175F13F75D4CF2275A5FC75F23E
:101B0000FE75D5FF2253F77F75DA03E4F5FC2275E5
:101B1000BB0853E8F843E8C22253ABFC43AB304365
:101B2000BF8022758E0875892043884022121AD6FC
:101B30008E378F38020FE27597DE7597AD2275E309
:101B40004075E1012275E6D875A8982243DA024370
:101B5000DB0222120C1D021191759602227F0022D7
:101B6000C35078B65D37323031323031230313231E
:101B70000313F77F7FDFDFF7EFEFFBFBBFBF04014E
:101B8000020401021890842460480074600F000071
:031B90000607083D
:00000001FF
